{
  "address": "0xE0F6Dd4c6DA9d832B34747A54f0b346B4936Cddf",
  "abi": [
    {
      "inputs": [
        {
          "internalType": "address[]",
          "name": "_adapters",
          "type": "address[]"
        },
        {
          "internalType": "address[]",
          "name": "_trustedTokens",
          "type": "address[]"
        },
        {
          "internalType": "address",
          "name": "_feeClaimer",
          "type": "address"
        },
        {
          "internalType": "address",
          "name": "_wrapped_native",
          "type": "address"
        }
      ],
      "stateMutability": "nonpayable",
      "type": "constructor"
    },
    {
      "anonymous": false,
      "inputs": [
        {
          "indexed": true,
          "internalType": "address",
          "name": "_tokenIn",
          "type": "address"
        },
        {
          "indexed": true,
          "internalType": "address",
          "name": "_tokenOut",
          "type": "address"
        },
        {
          "indexed": false,
          "internalType": "uint256",
          "name": "_amountIn",
          "type": "uint256"
        },
        {
          "indexed": false,
          "internalType": "uint256",
          "name": "_amountOut",
          "type": "uint256"
        }
      ],
      "name": "InfiSwap",
      "type": "event"
    },
    {
      "anonymous": false,
      "inputs": [
        {
          "indexed": true,
          "internalType": "address",
          "name": "_asset",
          "type": "address"
        },
        {
          "indexed": false,
          "internalType": "uint256",
          "name": "amount",
          "type": "uint256"
        }
      ],
      "name": "Recovered",
      "type": "event"
    },
    {
      "anonymous": false,
      "inputs": [
        {
          "indexed": true,
          "internalType": "bytes32",
          "name": "role",
          "type": "bytes32"
        },
        {
          "indexed": true,
          "internalType": "bytes32",
          "name": "previousAdminRole",
          "type": "bytes32"
        },
        {
          "indexed": true,
          "internalType": "bytes32",
          "name": "newAdminRole",
          "type": "bytes32"
        }
      ],
      "name": "RoleAdminChanged",
      "type": "event"
    },
    {
      "anonymous": false,
      "inputs": [
        {
          "indexed": true,
          "internalType": "bytes32",
          "name": "role",
          "type": "bytes32"
        },
        {
          "indexed": true,
          "internalType": "address",
          "name": "account",
          "type": "address"
        },
        {
          "indexed": true,
          "internalType": "address",
          "name": "sender",
          "type": "address"
        }
      ],
      "name": "RoleGranted",
      "type": "event"
    },
    {
      "anonymous": false,
      "inputs": [
        {
          "indexed": true,
          "internalType": "bytes32",
          "name": "role",
          "type": "bytes32"
        },
        {
          "indexed": true,
          "internalType": "address",
          "name": "account",
          "type": "address"
        },
        {
          "indexed": true,
          "internalType": "address",
          "name": "sender",
          "type": "address"
        }
      ],
      "name": "RoleRevoked",
      "type": "event"
    },
    {
      "anonymous": false,
      "inputs": [
        {
          "indexed": false,
          "internalType": "address[]",
          "name": "_newAdapters",
          "type": "address[]"
        }
      ],
      "name": "UpdatedAdapters",
      "type": "event"
    },
    {
      "anonymous": false,
      "inputs": [
        {
          "indexed": false,
          "internalType": "address",
          "name": "_oldFeeClaimer",
          "type": "address"
        },
        {
          "indexed": false,
          "internalType": "address",
          "name": "_newFeeClaimer",
          "type": "address"
        }
      ],
      "name": "UpdatedFeeClaimer",
      "type": "event"
    },
    {
      "anonymous": false,
      "inputs": [
        {
          "indexed": false,
          "internalType": "uint256",
          "name": "_oldMinFee",
          "type": "uint256"
        },
        {
          "indexed": false,
          "internalType": "uint256",
          "name": "_newMinFee",
          "type": "uint256"
        }
      ],
      "name": "UpdatedMinFee",
      "type": "event"
    },
    {
      "anonymous": false,
      "inputs": [
        {
          "indexed": false,
          "internalType": "address[]",
          "name": "_newTrustedTokens",
          "type": "address[]"
        }
      ],
      "name": "UpdatedTrustedTokens",
      "type": "event"
    },
    {
      "inputs": [
        {
          "internalType": "uint256",
          "name": "",
          "type": "uint256"
        }
      ],
      "name": "ADAPTERS",
      "outputs": [
        {
          "internalType": "address",
          "name": "",
          "type": "address"
        }
      ],
      "stateMutability": "view",
      "type": "function"
    },
    {
      "inputs": [],
      "name": "DEFAULT_ADMIN_ROLE",
      "outputs": [
        {
          "internalType": "bytes32",
          "name": "",
          "type": "bytes32"
        }
      ],
      "stateMutability": "view",
      "type": "function"
    },
    {
      "inputs": [],
      "name": "FEE_CLAIMER",
      "outputs": [
        {
          "internalType": "address",
          "name": "",
          "type": "address"
        }
      ],
      "stateMutability": "view",
      "type": "function"
    },
    {
      "inputs": [],
      "name": "FEE_DENOMINATOR",
      "outputs": [
        {
          "internalType": "uint256",
          "name": "",
          "type": "uint256"
        }
      ],
      "stateMutability": "view",
      "type": "function"
    },
    {
      "inputs": [],
      "name": "MAINTAINER_ROLE",
      "outputs": [
        {
          "internalType": "bytes32",
          "name": "",
          "type": "bytes32"
        }
      ],
      "stateMutability": "view",
      "type": "function"
    },
    {
      "inputs": [],
      "name": "MIN_FEE",
      "outputs": [
        {
          "internalType": "uint256",
          "name": "",
          "type": "uint256"
        }
      ],
      "stateMutability": "view",
      "type": "function"
    },
    {
      "inputs": [],
      "name": "NAME",
      "outputs": [
        {
          "internalType": "string",
          "name": "",
          "type": "string"
        }
      ],
      "stateMutability": "view",
      "type": "function"
    },
    {
      "inputs": [],
      "name": "NATIVE",
      "outputs": [
        {
          "internalType": "address",
          "name": "",
          "type": "address"
        }
      ],
      "stateMutability": "view",
      "type": "function"
    },
    {
      "inputs": [
        {
          "internalType": "uint256",
          "name": "",
          "type": "uint256"
        }
      ],
      "name": "TRUSTED_TOKENS",
      "outputs": [
        {
          "internalType": "address",
          "name": "",
          "type": "address"
        }
      ],
      "stateMutability": "view",
      "type": "function"
    },
    {
      "inputs": [],
      "name": "WNATIVE",
      "outputs": [
        {
          "internalType": "address",
          "name": "",
          "type": "address"
        }
      ],
      "stateMutability": "view",
      "type": "function"
    },
    {
      "inputs": [],
      "name": "adaptersCount",
      "outputs": [
        {
          "internalType": "uint256",
          "name": "",
          "type": "uint256"
        }
      ],
      "stateMutability": "view",
      "type": "function"
    },
    {
      "inputs": [
        {
          "internalType": "address",
          "name": "addedMaintainer",
          "type": "address"
        }
      ],
      "name": "addMaintainer",
      "outputs": [],
      "stateMutability": "nonpayable",
      "type": "function"
    },
    {
      "inputs": [
        {
          "internalType": "uint256",
          "name": "_amountIn",
          "type": "uint256"
        },
        {
          "internalType": "address",
          "name": "_tokenIn",
          "type": "address"
        },
        {
          "internalType": "address",
          "name": "_tokenOut",
          "type": "address"
        },
        {
          "internalType": "uint256",
          "name": "_maxSteps",
          "type": "uint256"
        }
      ],
      "name": "findBestPath",
      "outputs": [
        {
          "components": [
            {
              "internalType": "uint256[]",
              "name": "amounts",
              "type": "uint256[]"
            },
            {
              "internalType": "address[]",
              "name": "adapters",
              "type": "address[]"
            },
            {
              "internalType": "address[]",
              "name": "path",
              "type": "address[]"
            },
            {
              "internalType": "uint256",
              "name": "gasEstimate",
              "type": "uint256"
            }
          ],
          "internalType": "struct FormattedOffer",
          "name": "",
          "type": "tuple"
        }
      ],
      "stateMutability": "view",
      "type": "function"
    },
    {
      "inputs": [
        {
          "internalType": "uint256",
          "name": "_amountIn",
          "type": "uint256"
        },
        {
          "internalType": "address",
          "name": "_tokenIn",
          "type": "address"
        },
        {
          "internalType": "address",
          "name": "_tokenOut",
          "type": "address"
        },
        {
          "internalType": "uint256",
          "name": "_maxSteps",
          "type": "uint256"
        },
        {
          "internalType": "uint256",
          "name": "_gasPrice",
          "type": "uint256"
        }
      ],
      "name": "findBestPathWithGas",
      "outputs": [
        {
          "components": [
            {
              "internalType": "uint256[]",
              "name": "amounts",
              "type": "uint256[]"
            },
            {
              "internalType": "address[]",
              "name": "adapters",
              "type": "address[]"
            },
            {
              "internalType": "address[]",
              "name": "path",
              "type": "address[]"
            },
            {
              "internalType": "uint256",
              "name": "gasEstimate",
              "type": "uint256"
            }
          ],
          "internalType": "struct FormattedOffer",
          "name": "",
          "type": "tuple"
        }
      ],
      "stateMutability": "view",
      "type": "function"
    },
    {
      "inputs": [
        {
          "internalType": "bytes32",
          "name": "role",
          "type": "bytes32"
        }
      ],
      "name": "getRoleAdmin",
      "outputs": [
        {
          "internalType": "bytes32",
          "name": "",
          "type": "bytes32"
        }
      ],
      "stateMutability": "view",
      "type": "function"
    },
    {
      "inputs": [
        {
          "internalType": "bytes32",
          "name": "role",
          "type": "bytes32"
        },
        {
          "internalType": "address",
          "name": "account",
          "type": "address"
        }
      ],
      "name": "grantRole",
      "outputs": [],
      "stateMutability": "nonpayable",
      "type": "function"
    },
    {
      "inputs": [
        {
          "internalType": "bytes32",
          "name": "role",
          "type": "bytes32"
        },
        {
          "internalType": "address",
          "name": "account",
          "type": "address"
        }
      ],
      "name": "hasRole",
      "outputs": [
        {
          "internalType": "bool",
          "name": "",
          "type": "bool"
        }
      ],
      "stateMutability": "view",
      "type": "function"
    },
    {
      "inputs": [
        {
          "internalType": "uint256",
          "name": "_amountIn",
          "type": "uint256"
        },
        {
          "internalType": "address",
          "name": "_tokenIn",
          "type": "address"
        },
        {
          "internalType": "address",
          "name": "_tokenOut",
          "type": "address"
        },
        {
          "internalType": "uint8",
          "name": "_index",
          "type": "uint8"
        }
      ],
      "name": "queryAdapter",
      "outputs": [
        {
          "internalType": "uint256",
          "name": "",
          "type": "uint256"
        }
      ],
      "stateMutability": "view",
      "type": "function"
    },
    {
      "inputs": [
        {
          "internalType": "uint256",
          "name": "_amountIn",
          "type": "uint256"
        },
        {
          "internalType": "address",
          "name": "_tokenIn",
          "type": "address"
        },
        {
          "internalType": "address",
          "name": "_tokenOut",
          "type": "address"
        },
        {
          "internalType": "uint8[]",
          "name": "_options",
          "type": "uint8[]"
        }
      ],
      "name": "queryNoSplit",
      "outputs": [
        {
          "components": [
            {
              "internalType": "address",
              "name": "adapter",
              "type": "address"
            },
            {
              "internalType": "address",
              "name": "tokenIn",
              "type": "address"
            },
            {
              "internalType": "address",
              "name": "tokenOut",
              "type": "address"
            },
            {
              "internalType": "uint256",
              "name": "amountOut",
              "type": "uint256"
            }
          ],
          "internalType": "struct Query",
          "name": "",
          "type": "tuple"
        }
      ],
      "stateMutability": "view",
      "type": "function"
    },
    {
      "inputs": [
        {
          "internalType": "uint256",
          "name": "_amountIn",
          "type": "uint256"
        },
        {
          "internalType": "address",
          "name": "_tokenIn",
          "type": "address"
        },
        {
          "internalType": "address",
          "name": "_tokenOut",
          "type": "address"
        }
      ],
      "name": "queryNoSplit",
      "outputs": [
        {
          "components": [
            {
              "internalType": "address",
              "name": "adapter",
              "type": "address"
            },
            {
              "internalType": "address",
              "name": "tokenIn",
              "type": "address"
            },
            {
              "internalType": "address",
              "name": "tokenOut",
              "type": "address"
            },
            {
              "internalType": "uint256",
              "name": "amountOut",
              "type": "uint256"
            }
          ],
          "internalType": "struct Query",
          "name": "",
          "type": "tuple"
        }
      ],
      "stateMutability": "view",
      "type": "function"
    },
    {
      "inputs": [
        {
          "internalType": "address",
          "name": "_tokenAddress",
          "type": "address"
        },
        {
          "internalType": "uint256",
          "name": "_tokenAmount",
          "type": "uint256"
        }
      ],
      "name": "recoverERC20",
      "outputs": [],
      "stateMutability": "nonpayable",
      "type": "function"
    },
    {
      "inputs": [
        {
          "internalType": "uint256",
          "name": "_amount",
          "type": "uint256"
        }
      ],
      "name": "recoverNative",
      "outputs": [],
      "stateMutability": "nonpayable",
      "type": "function"
    },
    {
      "inputs": [
        {
          "internalType": "address",
          "name": "removedMaintainer",
          "type": "address"
        }
      ],
      "name": "removeMaintainer",
      "outputs": [],
      "stateMutability": "nonpayable",
      "type": "function"
    },
    {
      "inputs": [
        {
          "internalType": "bytes32",
          "name": "role",
          "type": "bytes32"
        },
        {
          "internalType": "address",
          "name": "account",
          "type": "address"
        }
      ],
      "name": "renounceRole",
      "outputs": [],
      "stateMutability": "nonpayable",
      "type": "function"
    },
    {
      "inputs": [
        {
          "internalType": "bytes32",
          "name": "role",
          "type": "bytes32"
        }
      ],
      "name": "renounceRole",
      "outputs": [],
      "stateMutability": "nonpayable",
      "type": "function"
    },
    {
      "inputs": [
        {
          "internalType": "bytes32",
          "name": "role",
          "type": "bytes32"
        },
        {
          "internalType": "address",
          "name": "account",
          "type": "address"
        }
      ],
      "name": "revokeRole",
      "outputs": [],
      "stateMutability": "nonpayable",
      "type": "function"
    },
    {
      "inputs": [
        {
          "internalType": "address[]",
          "name": "_adapters",
          "type": "address[]"
        }
      ],
      "name": "setAdapters",
      "outputs": [],
      "stateMutability": "nonpayable",
      "type": "function"
    },
    {
      "inputs": [
        {
          "internalType": "address",
          "name": "_wnative",
          "type": "address"
        }
      ],
      "name": "setAllowanceForWrapping",
      "outputs": [],
      "stateMutability": "nonpayable",
      "type": "function"
    },
    {
      "inputs": [
        {
          "internalType": "address",
          "name": "_claimer",
          "type": "address"
        }
      ],
      "name": "setFeeClaimer",
      "outputs": [],
      "stateMutability": "nonpayable",
      "type": "function"
    },
    {
      "inputs": [
        {
          "internalType": "uint256",
          "name": "_fee",
          "type": "uint256"
        }
      ],
      "name": "setMinFee",
      "outputs": [],
      "stateMutability": "nonpayable",
      "type": "function"
    },
    {
      "inputs": [
        {
          "internalType": "address[]",
          "name": "_trustedTokens",
          "type": "address[]"
        }
      ],
      "name": "setTrustedTokens",
      "outputs": [],
      "stateMutability": "nonpayable",
      "type": "function"
    },
    {
      "inputs": [
        {
          "internalType": "bytes4",
          "name": "interfaceId",
          "type": "bytes4"
        }
      ],
      "name": "supportsInterface",
      "outputs": [
        {
          "internalType": "bool",
          "name": "",
          "type": "bool"
        }
      ],
      "stateMutability": "view",
      "type": "function"
    },
    {
      "inputs": [
        {
          "components": [
            {
              "internalType": "uint256",
              "name": "amountIn",
              "type": "uint256"
            },
            {
              "internalType": "uint256",
              "name": "amountOut",
              "type": "uint256"
            },
            {
              "internalType": "address[]",
              "name": "path",
              "type": "address[]"
            },
            {
              "internalType": "address[]",
              "name": "adapters",
              "type": "address[]"
            }
          ],
          "internalType": "struct Trade",
          "name": "_trade",
          "type": "tuple"
        },
        {
          "internalType": "address",
          "name": "_to",
          "type": "address"
        },
        {
          "internalType": "uint256",
          "name": "_fee",
          "type": "uint256"
        }
      ],
      "name": "swapNoSplit",
      "outputs": [],
      "stateMutability": "nonpayable",
      "type": "function"
    },
    {
      "inputs": [
        {
          "components": [
            {
              "internalType": "uint256",
              "name": "amountIn",
              "type": "uint256"
            },
            {
              "internalType": "uint256",
              "name": "amountOut",
              "type": "uint256"
            },
            {
              "internalType": "address[]",
              "name": "path",
              "type": "address[]"
            },
            {
              "internalType": "address[]",
              "name": "adapters",
              "type": "address[]"
            }
          ],
          "internalType": "struct Trade",
          "name": "_trade",
          "type": "tuple"
        },
        {
          "internalType": "address",
          "name": "_to",
          "type": "address"
        },
        {
          "internalType": "uint256",
          "name": "_fee",
          "type": "uint256"
        },
        {
          "internalType": "uint256",
          "name": "_deadline",
          "type": "uint256"
        },
        {
          "internalType": "uint8",
          "name": "_v",
          "type": "uint8"
        },
        {
          "internalType": "bytes32",
          "name": "_r",
          "type": "bytes32"
        },
        {
          "internalType": "bytes32",
          "name": "_s",
          "type": "bytes32"
        }
      ],
      "name": "swapNoSplitWithPermit",
      "outputs": [],
      "stateMutability": "nonpayable",
      "type": "function"
    },
    {
      "inputs": [
        {
          "internalType": "address",
          "name": "newOwner",
          "type": "address"
        }
      ],
      "name": "transferOwnership",
      "outputs": [],
      "stateMutability": "nonpayable",
      "type": "function"
    },
    {
      "inputs": [],
      "name": "trustedTokensCount",
      "outputs": [
        {
          "internalType": "uint256",
          "name": "",
          "type": "uint256"
        }
      ],
      "stateMutability": "view",
      "type": "function"
    },
    {
      "stateMutability": "payable",
      "type": "receive"
    }
  ],
  "transactionHash": "0x3741c5a0f035f00c66b41664caae6948a0436303776165ad7b67b609a3d36eeb",
  "args": [
    [
      "0xc9475C9668367Eed94625FB585880D2A4Ae22e6b"
    ],
    [
      "0xE5C1b4cfF0c18aeB92D54148c1F70802F466d93E",
      "0x581F6A4EF0462C9E71a4180fa1C586E59466850D",
      "0xBEC3f434B4Ed5f50b6eD2aB0d9Fd4DCA2563069F",
      "0x6e063A0F514c304ca76Efc6a606bDd64f94CcC9C"
    ],
    "0xAF55E3564C86E86DeE92C75337643CaE006A406B",
    "0xe356046C34B8e989E6a311FE6478E2736937699D"
  ],
  "solcInputHash": "b4bb45b9afd6aacbd0b82d6e6317725f",
  "bytecode": "0x60a060405260006001553480156200001657600080fd5b50604051620042d5380380620042d583398101604081905262000039916200083e565b3362000047600082620000ba565b620000737f339759585899103d2ace64958e37e18ccb0504652c81d4a1b8aa80fe2126ab9582620000ba565b506200007f81620000ca565b6200008a8362000164565b620000958262000226565b620000a084620002ff565b60601b6001600160601b03191660805250620009ad915050565b620000c68282620003bc565b5050565b33600081815260008051602062004295833981519152602052604090205460ff166200013d5760405162461bcd60e51b81526020600482015260286024820152600080516020620042b583398151915260448201526734b73a30b4b732b960c11b60648201526084015b60405180910390fd5b620000c682600019846001600160a01b03166200045c60201b62001773179092919060201c565b33600081815260008051602062004295833981519152602052604090205460ff16620001d35760405162461bcd60e51b81526020600482015260286024820152600080516020620042b583398151915260448201526734b73a30b4b732b960c11b606482015260840162000134565b7f658ff1688002926d8f426cb10c052ec29003f50042df9652d8613484c1a586478260405162000204919062000948565b60405180910390a1815162000221906003906020850190620006f0565b505050565b33600081815260008051602062004295833981519152602052604090205460ff16620002955760405162461bcd60e51b81526020600482015260286024820152600080516020620042b583398151915260448201526734b73a30b4b732b960c11b606482015260840162000134565b600254604080516001600160a01b03928316815291841660208301527fb2c853ac4d80d18d058c43d8018d077a036e542a79acae1647f5ad2a8c76f4e2910160405180910390a150600280546001600160a01b0319166001600160a01b0392909216919091179055565b33600081815260008051602062004295833981519152602052604090205460ff166200036e5760405162461bcd60e51b81526020600482015260286024820152600080516020620042b583398151915260448201526734b73a30b4b732b960c11b606482015260840162000134565b7febf7325f48e05e5e38809c69f8b02a7c907ed31d8768e6c2d841b1296a9225fe826040516200039f919062000948565b60405180910390a1815162000221906004906020850190620006f0565b6000828152602081815260408083206001600160a01b038516845290915290205460ff16620000c6576000828152602081815260408083206001600160a01b03851684529091529020805460ff19166001179055620004183390565b6001600160a01b0316816001600160a01b0316837f2f8788117e7eff1d82e926ec794901d17c78024a50270940304540a733656f0d60405160405180910390a45050565b801580620004ea5750604051636eb1769f60e11b81523060048201526001600160a01b03838116602483015284169063dd62ed3e9060440160206040518083038186803b158015620004ad57600080fd5b505afa158015620004c2573d6000803e3d6000fd5b505050506040513d601f19601f82011682018060405250810190620004e89190620008f3565b155b6200055e5760405162461bcd60e51b815260206004820152603660248201527f5361666545524332303a20617070726f76652066726f6d206e6f6e2d7a65726f60448201527f20746f206e6f6e2d7a65726f20616c6c6f77616e636500000000000000000000606482015260840162000134565b604080516001600160a01b038416602482015260448082018490528251808303909101815260649091019091526020810180516001600160e01b0390811663095ea7b360e01b1790915262000221918591620005b616565b600080836001600160a01b031683604051620005d391906200090c565b6000604051808303816000865af19150503d806000811462000612576040519150601f19603f3d011682016040523d82523d6000602084013e62000617565b606091505b5091509150816200066b5760405162461bcd60e51b815260206004820181905260248201527f5361666545524332303a206c6f772d6c6576656c2063616c6c206661696c6564604482015260640162000134565b805115620006ea5780806020019051810190620006899190620008ca565b620006ea5760405162461bcd60e51b815260206004820152602a60248201527f5361666545524332303a204552433230206f7065726174696f6e20646964206e6044820152691bdd081cdd58d8d9595960b21b606482015260840162000134565b50505050565b82805482825590600052602060002090810192821562000748579160200282015b828111156200074857825182546001600160a01b0319166001600160a01b0390911617825560209092019160019091019062000711565b50620007569291506200075a565b5090565b5b808211156200075657600081556001016200075b565b80516001600160a01b03811681146200078957600080fd5b919050565b600082601f8301126200079f578081fd5b815160206001600160401b0380831115620007be57620007be62000997565b8260051b604051601f19603f83011681018181108482111715620007e657620007e662000997565b6040528481528381019250868401828801850189101562000805578687fd5b8692505b8583101562000832576200081d8162000771565b84529284019260019290920191840162000809565b50979650505050505050565b6000806000806080858703121562000854578384fd5b84516001600160401b03808211156200086b578586fd5b62000879888389016200078e565b955060208701519150808211156200088f578485fd5b506200089e878288016200078e565b935050620008af6040860162000771565b9150620008bf6060860162000771565b905092959194509250565b600060208284031215620008dc578081fd5b81518015158114620008ec578182fd5b9392505050565b60006020828403121562000905578081fd5b5051919050565b60008251815b818110156200092e576020818601810151858301520162000912565b818111156200093d5782828501525b509190910192915050565b6020808252825182820181905260009190848201906040850190845b818110156200098b5783516001600160a01b03168352928401929184019160010162000964565b50909695505050505050565b634e487b7160e01b600052604160045260246000fd5b60805160601c6138c2620009d36000396000818161066e015261197c01526138c26000f3fe6080604052600436106102525760003560e01c80638bb9c5bf11610138578063c3accd48116100b0578063d8baf7cf1161007f578063dede7f1511610064578063dede7f1514610746578063f2fde38b14610766578063f87422541461078657600080fd5b8063d8baf7cf14610706578063dd8544b31461072657600080fd5b8063c3accd4814610690578063c8a3a5c6146106b0578063d547741f146106d0578063d73792a9146106f057600080fd5b8063a0cf0aea11610107578063a3f4df7e116100ec578063a3f4df7e146105e6578063aede36931461063c578063b381cf401461065c57600080fd5b8063a0cf0aea146105bc578063a217fddf146105d157600080fd5b80638bb9c5bf146104d857806391d14854146104f857806392f5d88a1461053c578063952e90121461059c57600080fd5b806352a52ab0116101cb57806376c7a3c71161019a5780637c7a561b1161017f5780637c7a561b14610483578063809356aa146104985780638980f11f146104b857600080fd5b806376c7a3c71461045857806376ebe69c1461046e57600080fd5b806352a52ab0146103d85780636b453c1f146103f85780636bf2df861461041857806375d199471461043857600080fd5b80632f2ff15d1161022257806336568abe1161020757806336568abe146103785780633a9a4081146103985780634c09cf4e146103b857600080fd5b80632f2ff15d1461033657806331ac99201461035857600080fd5b8062b99e361461025e57806301ffc9a71461029b578063061b15e7146102cb578063248a9ca3146102f857600080fd5b3661025957005b600080fd5b34801561026a57600080fd5b5060025461027e906001600160a01b031681565b6040516001600160a01b0390911681526020015b60405180910390f35b3480156102a757600080fd5b506102bb6102b6366004613254565b6107ba565b6040519015158152602001610292565b3480156102d757600080fd5b506102eb6102e6366004613483565b610823565b604051610292919061368b565b34801561030457600080fd5b50610328610313366004613211565b60009081526020819052604090206001015490565b604051908152602001610292565b34801561034257600080fd5b50610356610351366004613229565b61092e565b005b34801561036457600080fd5b50610356610373366004613211565b610958565b34801561038457600080fd5b50610356610393366004613229565b610a29565b3480156103a457600080fd5b506103566103b336600461312a565b610ab5565b3480156103c457600080fd5b506102eb6103d3366004613440565b610b8e565b3480156103e457600080fd5b5061027e6103f3366004613211565b610c77565b34801561040457600080fd5b506103566104133660046130e7565b610ca1565b34801561042457600080fd5b5061035661043336600461327c565b610cce565b34801561044457600080fd5b506103566104533660046132d1565b610ce0565b34801561046457600080fd5b5061032860015481565b34801561047a57600080fd5b50600354610328565b34801561048f57600080fd5b50600454610328565b3480156104a457600080fd5b506103286104b33660046134d0565b610dd4565b3480156104c457600080fd5b506103566104d3366004613101565b610e9d565b3480156104e457600080fd5b506103566104f3366004613211565b610fd8565b34801561050457600080fd5b506102bb610513366004613229565b6000918252602082815260408084206001600160a01b0393909316845291905290205460ff1690565b34801561054857600080fd5b5061055c6105573660046133a7565b610fe3565b6040805182516001600160a01b03908116825260208085015182169083015283830151169181019190915260609182015191810191909152608001610292565b3480156105a857600080fd5b5061027e6105b7366004613211565b6111a6565b3480156105c857600080fd5b5061027e600081565b3480156105dd57600080fd5b50610328600081565b3480156105f257600080fd5b5061062f6040518060400160405280600a81526020017f496e6669526f757465720000000000000000000000000000000000000000000081525081565b6040516102929190613658565b34801561064857600080fd5b50610356610657366004613211565b6111b6565b34801561066857600080fd5b5061027e7f000000000000000000000000000000000000000000000000000000000000000081565b34801561069c57600080fd5b506103566106ab3660046130e7565b6112fd565b3480156106bc57600080fd5b506103566106cb36600461312a565b611403565b3480156106dc57600080fd5b506103566106eb366004613229565b6114dc565b3480156106fc57600080fd5b5061032861271081565b34801561071257600080fd5b506103566107213660046130e7565b611501565b34801561073257600080fd5b506103566107413660046130e7565b61152b565b34801561075257600080fd5b5061055c61076136600461336c565b6115d0565b34801561077257600080fd5b506103566107813660046130e7565b61175c565b34801561079257600080fd5b506103287f339759585899103d2ace64958e37e18ccb0504652c81d4a1b8aa80fe2126ab9581565b60006001600160e01b031982167f7965db0b00000000000000000000000000000000000000000000000000000000148061081d57507f01ffc9a7000000000000000000000000000000000000000000000000000000006001600160e01b03198316145b92915050565b61084e6040518060800160405280606081526020016060815260200160608152602001600081525090565b60008311801561085e5750600583105b6108af5760405162461bcd60e51b815260206004820152601d60248201527f496e6669526f757465723a20496e76616c6964206d61782d737465707300000060448201526064015b60405180910390fd5b60006108bb8787611918565b905060008084116108cd5760006108d7565b6108d7848761196b565b90506108e7888888888686611a0e565b915081602001515160001415610919576040805160208082018352600080835291855282519081018352908152908301525b61092282611da1565b98975050505050505050565b60008281526020819052604090206001015461094981611e1c565b6109538383611e26565b505050565b3360008181527fa54247010af6b3693b80aceddfad12e077c5de3571e6243fada502635f0d7d39602052604090205460ff166109e75760405162461bcd60e51b815260206004820152602860248201527f4d61696e7461696e61626c653a2043616c6c6572206973206e6f742061206d6160448201526734b73a30b4b732b960c11b60648201526084016108a6565b60015460408051918252602082018490527f4bb8a6184424e4bb853a4836042f5a726e4e710873989bfc6abdab19966f5b70910160405180910390a150600155565b6001600160a01b0381163314610aa75760405162461bcd60e51b815260206004820152602f60248201527f416363657373436f6e74726f6c3a2063616e206f6e6c792072656e6f756e636560448201527f20726f6c657320666f722073656c66000000000000000000000000000000000060648201526084016108a6565b610ab18282611ec4565b5050565b3360008181527fa54247010af6b3693b80aceddfad12e077c5de3571e6243fada502635f0d7d39602052604090205460ff16610b445760405162461bcd60e51b815260206004820152602860248201527f4d61696e7461696e61626c653a2043616c6c6572206973206e6f742061206d6160448201526734b73a30b4b732b960c11b60648201526084016108a6565b7febf7325f48e05e5e38809c69f8b02a7c907ed31d8768e6c2d841b1296a9225fe82604051610b739190613645565b60405180910390a18151610953906004906020850190613022565b610bb96040518060800160405280606081526020016060815260200160608152602001600081525090565b600082118015610bc95750600582105b610c155760405162461bcd60e51b815260206004820152601d60248201527f496e6669526f757465723a20496e76616c6964206d61782d737465707300000060448201526064016108a6565b6000610c218686611918565b9050610c3286868686856000611a0e565b905080602001515160001415610c64576040805160208082018352600080835291845282519081018352908152908201525b610c6d81611da1565b9695505050505050565b60038181548110610c8757600080fd5b6000918252602090912001546001600160a01b0316905081565b610ccb7f339759585899103d2ace64958e37e18ccb0504652c81d4a1b8aa80fe2126ab958261092e565b50565b610cda83338484611f43565b50505050565b610ced6040880188613725565b6000818110610d0c57634e487b7160e01b600052603260045260246000fd5b9050602002016020810190610d2191906130e7565b6040517fd505accf000000000000000000000000000000000000000000000000000000008152336004820152306024820152883560448201526064810186905260ff8516608482015260a4810184905260c481018390526001600160a01b03919091169063d505accf9060e401600060405180830381600087803b158015610da857600080fd5b505af1158015610dbc573d6000803e3d6000fd5b50505050610dcb878787610cce565b50505050505050565b60008060048360ff1681548110610dfb57634e487b7160e01b600052603260045260246000fd5b60009182526020822001546040516377ccc49d60e11b8152600481018990526001600160a01b03888116602483015287811660448301529091169250829063ef99893a9060640160206040518083038186803b158015610e5a57600080fd5b505afa158015610e6e573d6000803e3d6000fd5b505050506040513d601f19601f82011682018060405250810190610e929190613354565b979650505050505050565b3360008181527fa54247010af6b3693b80aceddfad12e077c5de3571e6243fada502635f0d7d39602052604090205460ff16610f2c5760405162461bcd60e51b815260206004820152602860248201527f4d61696e7461696e61626c653a2043616c6c6572206973206e6f742061206d6160448201526734b73a30b4b732b960c11b60648201526084016108a6565b60008211610f7c5760405162461bcd60e51b815260206004820152601260248201527f4e6f7468696e6720746f207265636f766572000000000000000000000000000060448201526064016108a6565b610f906001600160a01b03841633846127be565b826001600160a01b03167f8c1256b8896378cd5044f80c202f9772b9d77dc85c8a6eb51967210b09bfaa2883604051610fcb91815260200190565b60405180910390a2505050565b33610ab18282610a29565b60408051608081018252600080825260208201819052918101829052606081019190915260408051608081018252600080825260208201819052918101829052606081019190915260005b60ff811684111561119b576000600486868460ff1681811061106057634e487b7160e01b600052603260045260246000fd5b9050602002016020810190611075919061351c565b60ff168154811061109657634e487b7160e01b600052603260045260246000fd5b60009182526020822001546040516377ccc49d60e11b8152600481018c90526001600160a01b038b811660248301528a811660448301529091169250829063ef99893a9060640160206040518083038186803b1580156110f557600080fd5b505afa158015611109573d6000803e3d6000fd5b505050506040513d601f19601f8201168201806040525081019061112d9190613354565b905060ff831615806111425750836060015181115b15611186576040518060800160405280836001600160a01b031681526020018a6001600160a01b03168152602001896001600160a01b031681526020018281525093505b5050808061119390613840565b91505061102e565b509695505050505050565b60048181548110610c8757600080fd5b3360008181527fa54247010af6b3693b80aceddfad12e077c5de3571e6243fada502635f0d7d39602052604090205460ff166112455760405162461bcd60e51b815260206004820152602860248201527f4d61696e7461696e61626c653a2043616c6c6572206973206e6f742061206d6160448201526734b73a30b4b732b960c11b60648201526084016108a6565b600082116112955760405162461bcd60e51b815260206004820152601260248201527f4e6f7468696e6720746f207265636f766572000000000000000000000000000060448201526064016108a6565b604051339083156108fc029084906000818181858888f193505050501580156112c2573d6000803e3d6000fd5b506040518281526000907f8c1256b8896378cd5044f80c202f9772b9d77dc85c8a6eb51967210b09bfaa289060200160405180910390a25050565b3360008181527fa54247010af6b3693b80aceddfad12e077c5de3571e6243fada502635f0d7d39602052604090205460ff1661138c5760405162461bcd60e51b815260206004820152602860248201527f4d61696e7461696e61626c653a2043616c6c6572206973206e6f742061206d6160448201526734b73a30b4b732b960c11b60648201526084016108a6565b600254604080516001600160a01b03928316815291841660208301527fb2c853ac4d80d18d058c43d8018d077a036e542a79acae1647f5ad2a8c76f4e2910160405180910390a1506002805473ffffffffffffffffffffffffffffffffffffffff19166001600160a01b0392909216919091179055565b3360008181527fa54247010af6b3693b80aceddfad12e077c5de3571e6243fada502635f0d7d39602052604090205460ff166114925760405162461bcd60e51b815260206004820152602860248201527f4d61696e7461696e61626c653a2043616c6c6572206973206e6f742061206d6160448201526734b73a30b4b732b960c11b60648201526084016108a6565b7f658ff1688002926d8f426cb10c052ec29003f50042df9652d8613484c1a58647826040516114c19190613645565b60405180910390a18151610953906003906020850190613022565b6000828152602081905260409020600101546114f781611e1c565b6109538383611ec4565b610ccb7f339759585899103d2ace64958e37e18ccb0504652c81d4a1b8aa80fe2126ab95826114dc565b3360008181527fa54247010af6b3693b80aceddfad12e077c5de3571e6243fada502635f0d7d39602052604090205460ff166115ba5760405162461bcd60e51b815260206004820152602860248201527f4d61696e7461696e61626c653a2043616c6c6572206973206e6f742061206d6160448201526734b73a30b4b732b960c11b60648201526084016108a6565b610ab16001600160a01b03831683600019611773565b60408051608081018252600080825260208201819052918101829052606081019190915260408051608081018252600080825260208201819052918101829052606081019190915260005b60045460ff8216101561175357600060048260ff168154811061164e57634e487b7160e01b600052603260045260246000fd5b60009182526020822001546040516377ccc49d60e11b8152600481018a90526001600160a01b03898116602483015288811660448301529091169250829063ef99893a9060640160206040518083038186803b1580156116ad57600080fd5b505afa1580156116c1573d6000803e3d6000fd5b505050506040513d601f19601f820116820180604052508101906116e59190613354565b905060ff831615806116fa5750836060015181115b1561173e576040518060800160405280836001600160a01b03168152602001886001600160a01b03168152602001876001600160a01b031681526020018281525093505b5050808061174b90613840565b91505061161b565b50949350505050565b3361176860008361092e565b610ab1600082610a29565b80158061181557506040517fdd62ed3e0000000000000000000000000000000000000000000000000000000081523060048201526001600160a01b03838116602483015284169063dd62ed3e9060440160206040518083038186803b1580156117db57600080fd5b505afa1580156117ef573d6000803e3d6000fd5b505050506040513d601f19601f820116820180604052508101906118139190613354565b155b6118875760405162461bcd60e51b815260206004820152603660248201527f5361666545524332303a20617070726f76652066726f6d206e6f6e2d7a65726f60448201527f20746f206e6f6e2d7a65726f20616c6c6f77616e63650000000000000000000060648201526084016108a6565b6040516001600160a01b0383166024820152604481018290526109539084907f095ea7b300000000000000000000000000000000000000000000000000000000906064015b60408051601f198184030181529190526020810180517bffffffffffffffffffffffffffffffffffffffffffffffffffffffff166001600160e01b031990931692909217909152612807565b6119436040518060800160405280606081526020016060815260200160608152602001600081525090565b61194c83612943565b81526119606001600160a01b038316612943565b604082015292915050565b6000806119a3670de0b6b3a76400007f0000000000000000000000000000000000000000000000000000000000000000856002610b8e565b9050806040015151600014611a075780518051633b9aca009186916119ca906001906137cb565b815181106119e857634e487b7160e01b600052603260045260246000fd5b60200260200101516119fa91906137ac565b611a04919061378c565b91505b5092915050565b611a396040518060800160405280606081526020016060815260200160608152602001600081525090565b6000611a448461296d565b905060008084151581611a588c8c8c6115d0565b90508060600151600014611b06578115611ae45780600001516001600160a01b03166369cff80d6040518163ffffffff1660e01b815260040160206040518083038186803b158015611aa957600080fd5b505afa158015611abd573d6000803e3d6000fd5b505050506040513d601f19601f82011682018060405250810190611ae19190613354565b92505b606081015181516040830151611afe9288929091876129d0565b806060015193505b600189118015611b315750611b1c60028a6137cb565b6020896020015151611b2e919061378c565b11155b15611d915760005b600354811015611d8f5760038181548110611b6457634e487b7160e01b600052603260045260246000fd5b6000918252602090912001546001600160a01b038d811691161415611b8857611d7d565b6000611bca8e8e60038581548110611bb057634e487b7160e01b600052603260045260246000fd5b6000918252602090912001546001600160a01b03166115d0565b9050806060015160001415611bdf5750611d7d565b6000611bea8b61296d565b90508415611c6a5781600001516001600160a01b03166369cff80d6040518163ffffffff1660e01b815260040160206040518083038186803b158015611c2f57600080fd5b505afa158015611c43573d6000803e3d6000fd5b505050506040513d601f19601f82011682018060405250810190611c679190613354565b95505b606082015182516040840151611c8492849290918a6129d0565b611ccb826060015160038581548110611cad57634e487b7160e01b600052603260045260246000fd5b6000918252602090912001546001600160a01b03168f8f858f611a0e565b90506000611cd882612a94565b90506000611ce583612aa7565b9050816001600160a01b03168f6001600160a01b0316148015611d0757508881115b15611d7857896060015183606001511115611d71576000633b9aca008b606001518560600151611d3791906137cb565b611d41908f6137ac565b611d4b919061378c565b90506000611d598b846137cb565b905080821115611d6e57505050505050611d7d565b50505b8098508299505b505050505b80611d8781613825565b915050611b39565b505b50929a9950505050505050505050565b611dcc6040518060800160405280606081526020016060815260200160608152602001600081525090565b6040518060800160405280611de48460000151612abc565b8152602001611df68460200151612b98565b8152602001611e088460400151612b98565b815260200183606001518152509050919050565b610ccb8133612c6b565b6000828152602081815260408083206001600160a01b038516845290915290205460ff16610ab1576000828152602081815260408083206001600160a01b03851684529091529020805460ff19166001179055611e803390565b6001600160a01b0316816001600160a01b0316837f2f8788117e7eff1d82e926ec794901d17c78024a50270940304540a733656f0d60405160405180910390a45050565b6000828152602081815260408083206001600160a01b038516845290915290205460ff1615610ab1576000828152602081815260408083206001600160a01b0385168085529252808320805460ff1916905551339285917ff6391f5c32d9c69d2a47ea670b442974b53935d1edc7fd64eb21e047a839171b9190a45050565b600080611f536040870187613725565b905067ffffffffffffffff811115611f7b57634e487b7160e01b600052604160045260246000fd5b604051908082528060200260200182016040528015611fa4578160200160208202803683370190505b5090506000831180611fb857506000600154115b1561208957611fc8863584612cde565b81600081518110611fe957634e487b7160e01b600052603260045260246000fd5b60209081029190910101526120846120046040880188613725565b600081811061202357634e487b7160e01b600052603260045260246000fd5b905060200201602081019061203891906130e7565b600254835188916001600160a01b031690859060009061206857634e487b7160e01b600052603260045260246000fd5b60200260200101518a6000013561207f91906137cb565b612d5a565b6120bc565b8560000135816000815181106120af57634e487b7160e01b600052603260045260246000fd5b6020026020010181815250505b6121706120cc6040880188613725565b60008181106120eb57634e487b7160e01b600052603260045260246000fd5b905060200201602081019061210091906130e7565b8661210e60608a018a613725565b600081811061212d57634e487b7160e01b600052603260045260246000fd5b905060200201602081019061214291906130e7565b8460008151811061216357634e487b7160e01b600052603260045260246000fd5b6020026020010151612d5a565b60005b6121806060880188613725565b9050811015612358576121966060880188613725565b828181106121b457634e487b7160e01b600052603260045260246000fd5b90506020020160208101906121c991906130e7565b6001600160a01b031663ef99893a8383815181106121f757634e487b7160e01b600052603260045260246000fd5b602002602001015189806040019061220f9190613725565b8581811061222d57634e487b7160e01b600052603260045260246000fd5b905060200201602081019061224291906130e7565b61224f60408c018c613725565b61225a876001613774565b81811061227757634e487b7160e01b600052603260045260246000fd5b905060200201602081019061228c91906130e7565b6040516001600160e01b031960e086901b16815260048101939093526001600160a01b03918216602484015216604482015260640160206040518083038186803b1580156122d957600080fd5b505afa1580156122ed573d6000803e3d6000fd5b505050506040513d601f19601f820116820180604052508101906123119190613354565b8261231d836001613774565b8151811061233b57634e487b7160e01b600052603260045260246000fd5b60209081029190910101528061235081613825565b915050612173565b508560200135816001835161236d91906137cb565b8151811061238b57634e487b7160e01b600052603260045260246000fd5b602002602001015110156124075760405162461bcd60e51b815260206004820152602660248201527f496e6669526f757465723a20496e73756666696369656e74206f75747075742060448201527f616d6f756e74000000000000000000000000000000000000000000000000000060648201526084016108a6565b60005b6124176060880188613725565b9050811015612657576000600161243160608a018a613725565b61243c9291506137cb565b82106124485785612492565b6124556060890189613725565b612460846001613774565b81811061247d57634e487b7160e01b600052603260045260246000fd5b905060200201602081019061249291906130e7565b90506124a16060890189613725565b838181106124bf57634e487b7160e01b600052603260045260246000fd5b90506020020160208101906124d491906130e7565b6001600160a01b031663eab90da684848151811061250257634e487b7160e01b600052603260045260246000fd5b6020026020010151858560016125189190613774565b8151811061253657634e487b7160e01b600052603260045260246000fd5b60200260200101518b806040019061254e9190613725565b8781811061256c57634e487b7160e01b600052603260045260246000fd5b905060200201602081019061258191906130e7565b61258e60408e018e613725565b612599896001613774565b8181106125b657634e487b7160e01b600052603260045260246000fd5b90506020020160208101906125cb91906130e7565b6040516001600160e01b031960e087901b168152600481019490945260248401929092526001600160a01b03908116604484015290811660648301528416608482015260a401600060405180830381600087803b15801561262b57600080fd5b505af115801561263f573d6000803e3d6000fd5b5050505050808061264f90613825565b91505061240a565b506126656040870187613725565b600161267460408a018a613725565b61267f9291506137cb565b81811061269c57634e487b7160e01b600052603260045260246000fd5b90506020020160208101906126b191906130e7565b6001600160a01b03166126c76040880188613725565b60008181106126e657634e487b7160e01b600052603260045260246000fd5b90506020020160208101906126fb91906130e7565b6001600160a01b03167fbc9e5963fd50391ab7d69beba898ceae9b19adb7b788ea392c8f0bcf277b48fa8860000135846001865161273991906137cb565b8151811061275757634e487b7160e01b600052603260045260246000fd5b6020026020010151604051612776929190918252602082015260400190565b60405180910390a3806001825161278d91906137cb565b815181106127ab57634e487b7160e01b600052603260045260246000fd5b6020026020010151915050949350505050565b6040516001600160a01b0383166024820152604481018290526109539084907fa9059cbb00000000000000000000000000000000000000000000000000000000906064016118cc565b600080836001600160a01b0316836040516128229190613579565b6000604051808303816000865af19150503d806000811461285f576040519150601f19603f3d011682016040523d82523d6000602084013e612864565b606091505b5091509150816128b65760405162461bcd60e51b815260206004820181905260248201527f5361666545524332303a206c6f772d6c6576656c2063616c6c206661696c656460448201526064016108a6565b805115610cda57808060200190518101906128d191906131f1565b610cda5760405162461bcd60e51b815260206004820152602a60248201527f5361666545524332303a204552433230206f7065726174696f6e20646964206e60448201527f6f7420737563636565640000000000000000000000000000000000000000000060648201526084016108a6565b60408051602080825281830190925260609160208201818036833750505060208101929092525090565b6129986040518060800160405280606081526020016060815260200160608152602001600081525090565b604051806080016040528083600001518152602001836020015181526020018360400151815260200183606001518152509050919050565b84604001516129e7836001600160a01b0316612943565b6040516020016129f8929190613595565b60408051601f198184030181529181528601526020850151612a226001600160a01b038516612943565b604051602001612a33929190613595565b60408051601f1981840301815291905260208601528451612a5385612943565b604051602001612a64929190613595565b60408051601f198184030181529190528552606085018051829190612a8a908390613774565b9052505050505050565b6040810151805160009161081d91612b50565b604081015151815160009161081d9190612b50565b606060208251612acc919061378c565b67ffffffffffffffff811115612af257634e487b7160e01b600052604160045260246000fd5b604051908082528060200260200182016040528015612b1b578160200160208202803683370190505b50905060005b60208351612b2f919061378c565b811015612b9257612b5583612b458360206137ac565b612b50906020613774565b015190565b828281518110612b7557634e487b7160e01b600052603260045260246000fd5b602090810291909101015280612b8a81613825565b915050612b21565b50919050565b606060208251612ba8919061378c565b67ffffffffffffffff811115612bce57634e487b7160e01b600052604160045260246000fd5b604051908082528060200260200182016040528015612bf7578160200160208202803683370190505b50905060005b60208351612c0b919061378c565b811015612b9257612c2183612b458360206137ac565b828281518110612c4157634e487b7160e01b600052603260045260246000fd5b6001600160a01b039092166020928302919091019091015280612c6381613825565b915050612bfd565b6000828152602081815260408083206001600160a01b038516845290915290205460ff16610ab157612c9c81612d98565b612ca7836020612daa565b604051602001612cb89291906135c4565b60408051601f198184030181529082905262461bcd60e51b82526108a691600401613658565b6000600154821015612d325760405162461bcd60e51b815260206004820152601c60248201527f496e6669526f757465723a20496e73756666696369656e74206665650000000060448201526064016108a6565b612710612d3f83826137cb565b612d4990856137ac565b612d53919061378c565b9392505050565b6001600160a01b0383163014612d8457612d7f6001600160a01b038516848484612fd1565b610cda565b610cda6001600160a01b03851683836127be565b606061081d6001600160a01b03831660145b60606000612db98360026137ac565b612dc4906002613774565b67ffffffffffffffff811115612dea57634e487b7160e01b600052604160045260246000fd5b6040519080825280601f01601f191660200182016040528015612e14576020820181803683370190505b5090507f300000000000000000000000000000000000000000000000000000000000000081600081518110612e5957634e487b7160e01b600052603260045260246000fd5b60200101906001600160f81b031916908160001a9053507f780000000000000000000000000000000000000000000000000000000000000081600181518110612eb257634e487b7160e01b600052603260045260246000fd5b60200101906001600160f81b031916908160001a9053506000612ed68460026137ac565b612ee1906001613774565b90505b6001811115612f82577f303132333435363738396162636465660000000000000000000000000000000085600f1660108110612f3057634e487b7160e01b600052603260045260246000fd5b1a60f81b828281518110612f5457634e487b7160e01b600052603260045260246000fd5b60200101906001600160f81b031916908160001a90535060049490941c93612f7b8161380e565b9050612ee4565b508315612d535760405162461bcd60e51b815260206004820181905260248201527f537472696e67733a20686578206c656e67746820696e73756666696369656e7460448201526064016108a6565b6040516001600160a01b0380851660248301528316604482015260648101829052610cda9085907f23b872dd00000000000000000000000000000000000000000000000000000000906084016118cc565b828054828255906000526020600020908101928215613084579160200282015b82811115613084578251825473ffffffffffffffffffffffffffffffffffffffff19166001600160a01b03909116178255602090920191600190910190613042565b50613090929150613094565b5090565b5b808211156130905760008155600101613095565b80356001600160a01b03811681146130c057600080fd5b919050565b600060808284031215612b92578081fd5b803560ff811681146130c057600080fd5b6000602082840312156130f8578081fd5b612d53826130a9565b60008060408385031215613113578081fd5b61311c836130a9565b946020939093013593505050565b6000602080838503121561313c578182fd5b823567ffffffffffffffff80821115613153578384fd5b818501915085601f830112613166578384fd5b81358181111561317857613178613876565b8060051b604051601f19603f8301168101818110858211171561319d5761319d613876565b604052828152858101935084860182860187018a10156131bb578788fd5b8795505b838610156131e4576131d0816130a9565b8552600195909501949386019386016131bf565b5098975050505050505050565b600060208284031215613202578081fd5b81518015158114612d53578182fd5b600060208284031215613222578081fd5b5035919050565b6000806040838503121561323b578182fd5b8235915061324b602084016130a9565b90509250929050565b600060208284031215613265578081fd5b81356001600160e01b031981168114612d53578182fd5b600080600060608486031215613290578081fd5b833567ffffffffffffffff8111156132a6578182fd5b6132b2868287016130c5565b9350506132c1602085016130a9565b9150604084013590509250925092565b600080600080600080600060e0888a0312156132eb578283fd5b873567ffffffffffffffff811115613301578384fd5b61330d8a828b016130c5565b97505061331c602089016130a9565b95506040880135945060608801359350613338608089016130d6565b925060a0880135915060c0880135905092959891949750929550565b600060208284031215613365578081fd5b5051919050565b600080600060608486031215613380578283fd5b83359250613390602085016130a9565b915061339e604085016130a9565b90509250925092565b6000806000806000608086880312156133be578081fd5b853594506133ce602087016130a9565b93506133dc604087016130a9565b9250606086013567ffffffffffffffff808211156133f8578283fd5b818801915088601f83011261340b578283fd5b813581811115613419578384fd5b8960208260051b850101111561342d578384fd5b9699959850939650602001949392505050565b60008060008060808587031215613455578182fd5b84359350613465602086016130a9565b9250613473604086016130a9565b9396929550929360600135925050565b600080600080600060a0868803121561349a578283fd5b853594506134aa602087016130a9565b93506134b8604087016130a9565b94979396509394606081013594506080013592915050565b600080600080608085870312156134e5578182fd5b843593506134f5602086016130a9565b9250613503604086016130a9565b9150613511606086016130d6565b905092959194509250565b60006020828403121561352d578081fd5b612d53826130d6565b6000815180845260208085019450808401835b8381101561356e5781516001600160a01b031687529582019590820190600101613549565b509495945050505050565b6000825161358b8184602087016137e2565b9190910192915050565b600083516135a78184602088016137e2565b8351908301906135bb8183602088016137e2565b01949350505050565b7f416363657373436f6e74726f6c3a206163636f756e74200000000000000000008152600083516135fc8160178501602088016137e2565b7f206973206d697373696e6720726f6c652000000000000000000000000000000060179184019182015283516136398160288401602088016137e2565b01602801949350505050565b602081526000612d536020830184613536565b60208152600082518060208401526136778160408501602087016137e2565b601f01601f19169190910160400192915050565b60208082528251608083830152805160a0840181905260009291820190839060c08601905b808310156136d057835182529284019260019290920191908401906136b0565b50838701519350601f199250828682030160408701526136f08185613536565b9350505060408501518185840301606086015261370d8382613536565b92505050606084015160808401528091505092915050565b6000808335601e1984360301811261373b578283fd5b83018035915067ffffffffffffffff821115613755578283fd5b6020019150600581901b360382131561376d57600080fd5b9250929050565b6000821982111561378757613787613860565b500190565b6000826137a757634e487b7160e01b81526012600452602481fd5b500490565b60008160001904831182151516156137c6576137c6613860565b500290565b6000828210156137dd576137dd613860565b500390565b60005b838110156137fd5781810151838201526020016137e5565b83811115610cda5750506000910152565b60008161381d5761381d613860565b506000190190565b600060001982141561383957613839613860565b5060010190565b600060ff821660ff81141561385757613857613860565b60010192915050565b634e487b7160e01b600052601160045260246000fd5b634e487b7160e01b600052604160045260246000fdfea26469706673582212204af6c28c90a2ae6f8a213bbb56776bc7a33f5424beb5583c26c96f26a54b7c2464736f6c63430008040033a54247010af6b3693b80aceddfad12e077c5de3571e6243fada502635f0d7d394d61696e7461696e61626c653a2043616c6c6572206973206e6f742061206d61",
  "devdoc": {
    "kind": "dev",
    "methods": {
      "getRoleAdmin(bytes32)": {
        "details": "Returns the admin role that controls `role`. See {grantRole} and {revokeRole}. To change a role's admin, use {_setRoleAdmin}."
      },
      "grantRole(bytes32,address)": {
        "details": "Grants `role` to `account`. If `account` had not been already granted `role`, emits a {RoleGranted} event. Requirements: - the caller must have ``role``'s admin role. May emit a {RoleGranted} event."
      },
      "hasRole(bytes32,address)": {
        "details": "Returns `true` if `account` has been granted `role`."
      },
      "recoverERC20(address,uint256)": {
        "params": {
          "_tokenAddress": "token address",
          "_tokenAmount": "amount to recover"
        }
      },
      "recoverNative(uint256)": {
        "params": {
          "_amount": "amount"
        }
      },
      "renounceRole(bytes32,address)": {
        "details": "Revokes `role` from the calling account. Roles are often managed via {grantRole} and {revokeRole}: this function's purpose is to provide a mechanism for accounts to lose their privileges if they are compromised (such as when a trusted device is misplaced). If the calling account had been revoked `role`, emits a {RoleRevoked} event. Requirements: - the caller must be `account`. May emit a {RoleRevoked} event."
      },
      "revokeRole(bytes32,address)": {
        "details": "Revokes `role` from `account`. If `account` had been granted `role`, emits a {RoleRevoked} event. Requirements: - the caller must have ``role``'s admin role. May emit a {RoleRevoked} event."
      },
      "supportsInterface(bytes4)": {
        "details": "See {IERC165-supportsInterface}."
      }
    },
    "version": 1
  },
  "userdoc": {
    "kind": "user",
    "methods": {
      "findBestPath(uint256,address,address,uint256)": {
        "notice": "Return path with best returns between two tokens"
      },
      "findBestPathWithGas(uint256,address,address,uint256,uint256)": {
        "notice": "Return path with best returns between two tokens Takes gas-cost into account"
      },
      "queryAdapter(uint256,address,address,uint8)": {
        "notice": "Query single adapter"
      },
      "queryNoSplit(uint256,address,address)": {
        "notice": "Query all adapters"
      },
      "queryNoSplit(uint256,address,address,uint8[])": {
        "notice": "Query specified adapters"
      },
      "recoverERC20(address,uint256)": {
        "notice": "Recover ERC20 from contract"
      },
      "recoverNative(uint256)": {
        "notice": "Recover native asset from contract"
      },
      "swapNoSplitWithPermit((uint256,uint256,address[],address[]),address,uint256,uint256,uint8,bytes32,bytes32)": {
        "notice": "Swap token to token without the need to approve the first token"
      }
    },
    "version": 1
  },
  "storageLayout": {
    "storage": [
      {
        "astId": 24,
        "contract": "src/contracts/InfiRouter.sol:InfiRouter",
        "label": "_roles",
        "offset": 0,
        "slot": "0",
        "type": "t_mapping(t_bytes32,t_struct(RoleData)19_storage)"
      },
      {
        "astId": 1982,
        "contract": "src/contracts/InfiRouter.sol:InfiRouter",
        "label": "MIN_FEE",
        "offset": 0,
        "slot": "1",
        "type": "t_uint256"
      },
      {
        "astId": 1984,
        "contract": "src/contracts/InfiRouter.sol:InfiRouter",
        "label": "FEE_CLAIMER",
        "offset": 0,
        "slot": "2",
        "type": "t_address"
      },
      {
        "astId": 1987,
        "contract": "src/contracts/InfiRouter.sol:InfiRouter",
        "label": "TRUSTED_TOKENS",
        "offset": 0,
        "slot": "3",
        "type": "t_array(t_address)dyn_storage"
      },
      {
        "astId": 1990,
        "contract": "src/contracts/InfiRouter.sol:InfiRouter",
        "label": "ADAPTERS",
        "offset": 0,
        "slot": "4",
        "type": "t_array(t_address)dyn_storage"
      }
    ],
    "types": {
      "t_address": {
        "encoding": "inplace",
        "label": "address",
        "numberOfBytes": "20"
      },
      "t_array(t_address)dyn_storage": {
        "base": "t_address",
        "encoding": "dynamic_array",
        "label": "address[]",
        "numberOfBytes": "32"
      },
      "t_bool": {
        "encoding": "inplace",
        "label": "bool",
        "numberOfBytes": "1"
      },
      "t_bytes32": {
        "encoding": "inplace",
        "label": "bytes32",
        "numberOfBytes": "32"
      },
      "t_mapping(t_address,t_bool)": {
        "encoding": "mapping",
        "key": "t_address",
        "label": "mapping(address => bool)",
        "numberOfBytes": "32",
        "value": "t_bool"
      },
      "t_mapping(t_bytes32,t_struct(RoleData)19_storage)": {
        "encoding": "mapping",
        "key": "t_bytes32",
        "label": "mapping(bytes32 => struct AccessControl.RoleData)",
        "numberOfBytes": "32",
        "value": "t_struct(RoleData)19_storage"
      },
      "t_struct(RoleData)19_storage": {
        "encoding": "inplace",
        "label": "struct AccessControl.RoleData",
        "members": [
          {
            "astId": 16,
            "contract": "src/contracts/InfiRouter.sol:InfiRouter",
            "label": "members",
            "offset": 0,
            "slot": "0",
            "type": "t_mapping(t_address,t_bool)"
          },
          {
            "astId": 18,
            "contract": "src/contracts/InfiRouter.sol:InfiRouter",
            "label": "adminRole",
            "offset": 0,
            "slot": "1",
            "type": "t_bytes32"
          }
        ],
        "numberOfBytes": "64"
      },
      "t_uint256": {
        "encoding": "inplace",
        "label": "uint256",
        "numberOfBytes": "32"
      }
    }
  }
}