{
  "address": "0x08552366aD8d3fb8B8b643fD66f21C55B77d8490",
  "abi": [
    {
      "inputs": [
        {
          "internalType": "string",
          "name": "_name",
          "type": "string"
        },
        {
          "internalType": "uint256",
          "name": "_swapGasEstimate",
          "type": "uint256"
        },
        {
          "internalType": "uint256",
          "name": "_quoterGasLimit",
          "type": "uint256"
        },
        {
          "internalType": "address",
          "name": "_quoter",
          "type": "address"
        },
        {
          "internalType": "address",
          "name": "_factory",
          "type": "address"
        },
        {
          "internalType": "uint24[]",
          "name": "_defaultFees",
          "type": "uint24[]"
        }
      ],
      "stateMutability": "nonpayable",
      "type": "constructor"
    },
    {
      "anonymous": false,
      "inputs": [
        {
          "indexed": true,
          "internalType": "address",
          "name": "_tokenFrom",
          "type": "address"
        },
        {
          "indexed": true,
          "internalType": "address",
          "name": "_tokenTo",
          "type": "address"
        },
        {
          "indexed": false,
          "internalType": "uint256",
          "name": "_amountIn",
          "type": "uint256"
        },
        {
          "indexed": false,
          "internalType": "uint256",
          "name": "_amountOut",
          "type": "uint256"
        }
      ],
      "name": "InfiAdapterSwap",
      "type": "event"
    },
    {
      "anonymous": false,
      "inputs": [
        {
          "indexed": true,
          "internalType": "address",
          "name": "_asset",
          "type": "address"
        },
        {
          "indexed": false,
          "internalType": "uint256",
          "name": "amount",
          "type": "uint256"
        }
      ],
      "name": "Recovered",
      "type": "event"
    },
    {
      "anonymous": false,
      "inputs": [
        {
          "indexed": true,
          "internalType": "bytes32",
          "name": "role",
          "type": "bytes32"
        },
        {
          "indexed": true,
          "internalType": "bytes32",
          "name": "previousAdminRole",
          "type": "bytes32"
        },
        {
          "indexed": true,
          "internalType": "bytes32",
          "name": "newAdminRole",
          "type": "bytes32"
        }
      ],
      "name": "RoleAdminChanged",
      "type": "event"
    },
    {
      "anonymous": false,
      "inputs": [
        {
          "indexed": true,
          "internalType": "bytes32",
          "name": "role",
          "type": "bytes32"
        },
        {
          "indexed": true,
          "internalType": "address",
          "name": "account",
          "type": "address"
        },
        {
          "indexed": true,
          "internalType": "address",
          "name": "sender",
          "type": "address"
        }
      ],
      "name": "RoleGranted",
      "type": "event"
    },
    {
      "anonymous": false,
      "inputs": [
        {
          "indexed": true,
          "internalType": "bytes32",
          "name": "role",
          "type": "bytes32"
        },
        {
          "indexed": true,
          "internalType": "address",
          "name": "account",
          "type": "address"
        },
        {
          "indexed": true,
          "internalType": "address",
          "name": "sender",
          "type": "address"
        }
      ],
      "name": "RoleRevoked",
      "type": "event"
    },
    {
      "anonymous": false,
      "inputs": [
        {
          "indexed": true,
          "internalType": "address",
          "name": "_adapter",
          "type": "address"
        },
        {
          "indexed": false,
          "internalType": "uint256",
          "name": "_newEstimate",
          "type": "uint256"
        }
      ],
      "name": "UpdatedGasEstimate",
      "type": "event"
    },
    {
      "inputs": [],
      "name": "DEFAULT_ADMIN_ROLE",
      "outputs": [
        {
          "internalType": "bytes32",
          "name": "",
          "type": "bytes32"
        }
      ],
      "stateMutability": "view",
      "type": "function"
    },
    {
      "inputs": [],
      "name": "MAINTAINER_ROLE",
      "outputs": [
        {
          "internalType": "bytes32",
          "name": "",
          "type": "bytes32"
        }
      ],
      "stateMutability": "view",
      "type": "function"
    },
    {
      "inputs": [
        {
          "internalType": "address",
          "name": "addedMaintainer",
          "type": "address"
        }
      ],
      "name": "addMaintainer",
      "outputs": [],
      "stateMutability": "nonpayable",
      "type": "function"
    },
    {
      "inputs": [
        {
          "internalType": "uint24[]",
          "name": "_amounts",
          "type": "uint24[]"
        }
      ],
      "name": "enableFeeAmounts",
      "outputs": [],
      "stateMutability": "nonpayable",
      "type": "function"
    },
    {
      "inputs": [
        {
          "internalType": "uint256",
          "name": "",
          "type": "uint256"
        }
      ],
      "name": "feeAmounts",
      "outputs": [
        {
          "internalType": "uint24",
          "name": "",
          "type": "uint24"
        }
      ],
      "stateMutability": "view",
      "type": "function"
    },
    {
      "inputs": [
        {
          "internalType": "address",
          "name": "pool",
          "type": "address"
        },
        {
          "internalType": "int256",
          "name": "amountIn",
          "type": "int256"
        },
        {
          "internalType": "address",
          "name": "tokenIn",
          "type": "address"
        },
        {
          "internalType": "address",
          "name": "tokenOut",
          "type": "address"
        }
      ],
      "name": "getQuoteForPool",
      "outputs": [
        {
          "internalType": "uint256",
          "name": "",
          "type": "uint256"
        }
      ],
      "stateMutability": "view",
      "type": "function"
    },
    {
      "inputs": [
        {
          "internalType": "bytes32",
          "name": "role",
          "type": "bytes32"
        }
      ],
      "name": "getRoleAdmin",
      "outputs": [
        {
          "internalType": "bytes32",
          "name": "",
          "type": "bytes32"
        }
      ],
      "stateMutability": "view",
      "type": "function"
    },
    {
      "inputs": [
        {
          "internalType": "bytes32",
          "name": "role",
          "type": "bytes32"
        },
        {
          "internalType": "address",
          "name": "account",
          "type": "address"
        }
      ],
      "name": "grantRole",
      "outputs": [],
      "stateMutability": "nonpayable",
      "type": "function"
    },
    {
      "inputs": [
        {
          "internalType": "bytes32",
          "name": "role",
          "type": "bytes32"
        },
        {
          "internalType": "address",
          "name": "account",
          "type": "address"
        }
      ],
      "name": "hasRole",
      "outputs": [
        {
          "internalType": "bool",
          "name": "",
          "type": "bool"
        }
      ],
      "stateMutability": "view",
      "type": "function"
    },
    {
      "inputs": [
        {
          "internalType": "uint24",
          "name": "",
          "type": "uint24"
        }
      ],
      "name": "isFeeAmountEnabled",
      "outputs": [
        {
          "internalType": "bool",
          "name": "",
          "type": "bool"
        }
      ],
      "stateMutability": "view",
      "type": "function"
    },
    {
      "inputs": [],
      "name": "name",
      "outputs": [
        {
          "internalType": "string",
          "name": "",
          "type": "string"
        }
      ],
      "stateMutability": "view",
      "type": "function"
    },
    {
      "inputs": [
        {
          "internalType": "uint256",
          "name": "_amountIn",
          "type": "uint256"
        },
        {
          "internalType": "address",
          "name": "_tokenIn",
          "type": "address"
        },
        {
          "internalType": "address",
          "name": "_tokenOut",
          "type": "address"
        }
      ],
      "name": "query",
      "outputs": [
        {
          "internalType": "uint256",
          "name": "",
          "type": "uint256"
        }
      ],
      "stateMutability": "view",
      "type": "function"
    },
    {
      "inputs": [],
      "name": "quoter",
      "outputs": [
        {
          "internalType": "address",
          "name": "",
          "type": "address"
        }
      ],
      "stateMutability": "view",
      "type": "function"
    },
    {
      "inputs": [],
      "name": "quoterGasLimit",
      "outputs": [
        {
          "internalType": "uint256",
          "name": "",
          "type": "uint256"
        }
      ],
      "stateMutability": "view",
      "type": "function"
    },
    {
      "inputs": [
        {
          "internalType": "uint256",
          "name": "_amount",
          "type": "uint256"
        }
      ],
      "name": "recoverAVAX",
      "outputs": [],
      "stateMutability": "nonpayable",
      "type": "function"
    },
    {
      "inputs": [
        {
          "internalType": "address",
          "name": "_tokenAddress",
          "type": "address"
        },
        {
          "internalType": "uint256",
          "name": "_tokenAmount",
          "type": "uint256"
        }
      ],
      "name": "recoverERC20",
      "outputs": [],
      "stateMutability": "nonpayable",
      "type": "function"
    },
    {
      "inputs": [
        {
          "internalType": "address",
          "name": "removedMaintainer",
          "type": "address"
        }
      ],
      "name": "removeMaintainer",
      "outputs": [],
      "stateMutability": "nonpayable",
      "type": "function"
    },
    {
      "inputs": [
        {
          "internalType": "bytes32",
          "name": "role",
          "type": "bytes32"
        },
        {
          "internalType": "address",
          "name": "account",
          "type": "address"
        }
      ],
      "name": "renounceRole",
      "outputs": [],
      "stateMutability": "nonpayable",
      "type": "function"
    },
    {
      "inputs": [
        {
          "internalType": "bytes32",
          "name": "role",
          "type": "bytes32"
        }
      ],
      "name": "renounceRole",
      "outputs": [],
      "stateMutability": "nonpayable",
      "type": "function"
    },
    {
      "inputs": [
        {
          "internalType": "address",
          "name": "_token",
          "type": "address"
        },
        {
          "internalType": "address",
          "name": "_spender",
          "type": "address"
        }
      ],
      "name": "revokeAllowance",
      "outputs": [],
      "stateMutability": "nonpayable",
      "type": "function"
    },
    {
      "inputs": [
        {
          "internalType": "bytes32",
          "name": "role",
          "type": "bytes32"
        },
        {
          "internalType": "address",
          "name": "account",
          "type": "address"
        }
      ],
      "name": "revokeRole",
      "outputs": [],
      "stateMutability": "nonpayable",
      "type": "function"
    },
    {
      "inputs": [
        {
          "internalType": "address",
          "name": "newQuoter",
          "type": "address"
        }
      ],
      "name": "setQuoter",
      "outputs": [],
      "stateMutability": "nonpayable",
      "type": "function"
    },
    {
      "inputs": [
        {
          "internalType": "uint256",
          "name": "newLimit",
          "type": "uint256"
        }
      ],
      "name": "setQuoterGasLimit",
      "outputs": [],
      "stateMutability": "nonpayable",
      "type": "function"
    },
    {
      "inputs": [
        {
          "internalType": "uint256",
          "name": "_estimate",
          "type": "uint256"
        }
      ],
      "name": "setSwapGasEstimate",
      "outputs": [],
      "stateMutability": "nonpayable",
      "type": "function"
    },
    {
      "inputs": [
        {
          "internalType": "bytes4",
          "name": "interfaceId",
          "type": "bytes4"
        }
      ],
      "name": "supportsInterface",
      "outputs": [
        {
          "internalType": "bool",
          "name": "",
          "type": "bool"
        }
      ],
      "stateMutability": "view",
      "type": "function"
    },
    {
      "inputs": [
        {
          "internalType": "uint256",
          "name": "_amountIn",
          "type": "uint256"
        },
        {
          "internalType": "uint256",
          "name": "_amountOut",
          "type": "uint256"
        },
        {
          "internalType": "address",
          "name": "_fromToken",
          "type": "address"
        },
        {
          "internalType": "address",
          "name": "_toToken",
          "type": "address"
        },
        {
          "internalType": "address",
          "name": "_to",
          "type": "address"
        }
      ],
      "name": "swap",
      "outputs": [],
      "stateMutability": "nonpayable",
      "type": "function"
    },
    {
      "inputs": [],
      "name": "swapGasEstimate",
      "outputs": [
        {
          "internalType": "uint256",
          "name": "",
          "type": "uint256"
        }
      ],
      "stateMutability": "view",
      "type": "function"
    },
    {
      "inputs": [
        {
          "internalType": "address",
          "name": "newOwner",
          "type": "address"
        }
      ],
      "name": "transferOwnership",
      "outputs": [],
      "stateMutability": "nonpayable",
      "type": "function"
    },
    {
      "inputs": [
        {
          "internalType": "int256",
          "name": "amount0Delta",
          "type": "int256"
        },
        {
          "internalType": "int256",
          "name": "amount1Delta",
          "type": "int256"
        },
        {
          "internalType": "bytes",
          "name": "",
          "type": "bytes"
        }
      ],
      "name": "uniswapV3SwapCallback",
      "outputs": [],
      "stateMutability": "nonpayable",
      "type": "function"
    },
    {
      "stateMutability": "payable",
      "type": "receive"
    }
  ],
  "transactionHash": "0xad48fdf6a1eeb498bae67ea4f4c74f46cdf85c86434603b5ada5673d6a834248",
  "args": [
    "UniswapV3Adapter",
    5000000,
    20000000,
    "0xc4ea7eFE6cA646324fd6dE0346125C44B839C393",
    "0x5f37a6Ea51351BBBED8bD7Ed78EBa923B8D60897",
    [
      100,
      500,
      3000,
      10000
    ]
  ],
  "solcInputHash": "40b31ed079ca9de3f5d700b427bad7cd",
  "bytecode": "0x60a06040523480156200001157600080fd5b50604051620031983803806200319883398101604081905262000034916200066c565b858585858585858584868383336200004e6000826200012e565b6200007a7f339759585899103d2ace64958e37e18ccb0504652c81d4a1b8aa80fe2126ab95826200012e565b5062000086826200013e565b6200009181620001a7565b506200009f905081620002a3565b620000aa8262000367565b5050506001600160601b0319606084901b166080525060005b81518110156200011b5762000106828281518110620000f257634e487b7160e01b600052603260045260246000fd5b6020026020010151620003f960201b60201c565b806200011281620007f2565b915050620000c3565b5050505050505050505050505062000830565b6200013a82826200046d565b5050565b8051620001925760405162461bcd60e51b815260206004820152601460248201527f496e76616c69642061646170746572206e616d6500000000000000000000000060448201526064015b60405180910390fd5b80516200013a9060029060208401906200050d565b33600081815260008051602062003158833981519152602052604090205460ff16620002165760405162461bcd60e51b815260206004820152602860248201526000805160206200317883398151915260448201526734b73a30b4b732b960c11b606482015260840162000189565b81620002655760405162461bcd60e51b815260206004820152601460248201527f496e76616c6964206761732d657374696d617465000000000000000000000000604482015260640162000189565b600182905560405182815230907ff43f23b7a28e6f8ce6843a21bd7b48bce778aa913b8c8cf459edf7d770e8d38a9060200160405180910390a25050565b33600081815260008051602062003158833981519152602052604090205460ff16620003125760405162461bcd60e51b815260206004820152602860248201526000805160206200317883398151915260448201526734b73a30b4b732b960c11b606482015260840162000189565b81620003615760405162461bcd60e51b815260206004820152601b60248201527f71756572794761734c696d69742063616e2774206265207a65726f0000000000604482015260640162000189565b50600355565b33600081815260008051602062003158833981519152602052604090205460ff16620003d65760405162461bcd60e51b815260206004820152602860248201526000805160206200317883398151915260448201526734b73a30b4b732b960c11b606482015260840162000189565b50600480546001600160a01b0319166001600160a01b0392909216919091179055565b62ffffff9081166000818152600560205260408120805460ff19166001908117909155600680549182018155909152600a8082047ff652222313e28459528d920b65115c16c04f3efc82aaedc97be59f3f377c0d3f018054600392909306919091026101000a928302929093021916179055565b6000828152602081815260408083206001600160a01b038516845290915290205460ff166200013a576000828152602081815260408083206001600160a01b03851684529091529020805460ff19166001179055620004c93390565b6001600160a01b0316816001600160a01b0316837f2f8788117e7eff1d82e926ec794901d17c78024a50270940304540a733656f0d60405160405180910390a45050565b8280546200051b90620007b5565b90600052602060002090601f0160209004810192826200053f57600085556200058a565b82601f106200055a57805160ff19168380011785556200058a565b828001600101855582156200058a579182015b828111156200058a5782518255916020019190600101906200056d565b50620005989291506200059c565b5090565b5b808211156200059857600081556001016200059d565b80516001600160a01b0381168114620005cb57600080fd5b919050565b600082601f830112620005e1578081fd5b815160206001600160401b03821115620005ff57620005ff6200081a565b8160051b6200061082820162000782565b8381528281019086840183880185018910156200062b578687fd5b8693505b858410156200066057805162ffffff811681146200064b578788fd5b8352600193909301929184019184016200062f565b50979650505050505050565b60008060008060008060c0878903121562000685578182fd5b86516001600160401b03808211156200069c578384fd5b818901915089601f830112620006b0578384fd5b815181811115620006c557620006c56200081a565b6020620006db601f8301601f1916820162000782565b8281528c82848701011115620006ef578687fd5b865b838110156200070e578581018301518282018401528201620006f1565b838111156200071f57878385840101525b50908b015160408c0151919a509850965062000740905060608a01620005b3565b94506200075060808a01620005b3565b935060a089015191508082111562000766578283fd5b506200077589828a01620005d0565b9150509295509295509295565b604051601f8201601f191681016001600160401b0381118282101715620007ad57620007ad6200081a565b604052919050565b600181811c90821680620007ca57607f821691505b60208210811415620007ec57634e487b7160e01b600052602260045260246000fd5b50919050565b60006000198214156200081357634e487b7160e01b81526011600452602481fd5b5060010190565b634e487b7160e01b600052604160045260246000fd5b60805160601c612902620008566000396000818161158901526120a501526129026000f3fe6080604052600436106101c65760003560e01c80638bb9c5bf116100f7578063d8baf7cf11610095578063f35c4d4511610064578063f35c4d451461056a578063f87422541461058a578063f912c64b146105be578063fa461e33146105de57600080fd5b8063d8baf7cf146104ea578063eab90da61461050a578063ef99893a1461052a578063f2fde38b1461054a57600080fd5b8063a2e64137116100d1578063a2e641371461042e578063c6bbd5a714610462578063ce62f6c41461049a578063d547741f146104ca57600080fd5b80638bb9c5bf146103b557806391d14854146103d5578063a217fddf1461041957600080fd5b80634ebb79161161016457806373ec15661161013e57806373ec1566146103355780637ae267731461035557806384a33e63146103755780638980f11f1461039557600080fd5b80634ebb7916146102df57806369cff80d146102ff5780636b453c1f1461031557600080fd5b8063248a9ca3116101a0578063248a9ca3146102575780632bc857a0146102875780632f2ff15d1461029d57806336568abe146102bf57600080fd5b806301ffc9a7146101d257806305e3f4dc1461020757806306fdde031461023557600080fd5b366101cd57005b600080fd5b3480156101de57600080fd5b506101f26101ed366004612430565b6105fe565b60405190151581526020015b60405180910390f35b34801561021357600080fd5b506102276102223660046122e7565b610667565b6040519081526020016101fe565b34801561024157600080fd5b5061024a6106a8565b6040516101fe9190612724565b34801561026357600080fd5b506102276102723660046123f4565b60009081526020819052604090206001015490565b34801561029357600080fd5b5061022760035481565b3480156102a957600080fd5b506102bd6102b836600461240c565b610736565b005b3480156102cb57600080fd5b506102bd6102da36600461240c565b610760565b3480156102eb57600080fd5b506102bd6102fa3660046123f4565b6107f1565b34801561030b57600080fd5b5061022760015481565b34801561032157600080fd5b506102bd610330366004612277565b610939565b34801561034157600080fd5b506102bd610350366004612364565b610966565b34801561036157600080fd5b506102bd6103703660046122af565b610a53565b34801561038157600080fd5b506102bd6103903660046123f4565b610af7565b3480156103a157600080fd5b506102bd6103b0366004612339565b610c0a565b3480156103c157600080fd5b506102bd6103d03660046123f4565b610d45565b3480156103e157600080fd5b506101f26103f036600461240c565b6000918252602082815260408084206001600160a01b0393909316845291905290205460ff1690565b34801561042557600080fd5b50610227600081565b34801561043a57600080fd5b5061044e6104493660046123f4565b610d50565b60405162ffffff90911681526020016101fe565b34801561046e57600080fd5b50600454610482906001600160a01b031681565b6040516001600160a01b0390911681526020016101fe565b3480156104a657600080fd5b506101f26104b5366004612547565b60056020526000908152604090205460ff1681565b3480156104d657600080fd5b506102bd6104e536600461240c565b610d89565b3480156104f657600080fd5b506102bd610505366004612277565b610dae565b34801561051657600080fd5b506102bd6105253660046125c3565b610dd8565b34801561053657600080fd5b50610227610545366004612582565b610f9d565b34801561055657600080fd5b506102bd610565366004612277565b610fb2565b34801561057657600080fd5b506102bd6105853660046123f4565b610fc9565b34801561059657600080fd5b506102277f339759585899103d2ace64958e37e18ccb0504652c81d4a1b8aa80fe2126ab9581565b3480156105ca57600080fd5b506102bd6105d9366004612277565b6110ab565b3480156105ea57600080fd5b506102bd6105f936600461249c565b611175565b60006001600160e01b031982167f7965db0b00000000000000000000000000000000000000000000000000000000148061066157507f01ffc9a7000000000000000000000000000000000000000000000000000000006001600160e01b03198316145b92915050565b604080516080810182526000606082018190529181018590526001600160a01b0384811682528316602082015261069e8682611371565b9695505050505050565b600280546106b59061281b565b80601f01602080910402602001604051908101604052809291908181526020018280546106e19061281b565b801561072e5780601f106107035761010080835404028352916020019161072e565b820191906000526020600020905b81548152906001019060200180831161071157829003601f168201915b505050505081565b600082815260208190526040902060010154610751816113ca565b61075b83836113d4565b505050565b6001600160a01b03811633146107e35760405162461bcd60e51b815260206004820152602f60248201527f416363657373436f6e74726f6c3a2063616e206f6e6c792072656e6f756e636560448201527f20726f6c657320666f722073656c66000000000000000000000000000000000060648201526084015b60405180910390fd5b6107ed8282611472565b5050565b3360008181527fa54247010af6b3693b80aceddfad12e077c5de3571e6243fada502635f0d7d39602052604090205460ff166108805760405162461bcd60e51b815260206004820152602860248201527f4d61696e7461696e61626c653a2043616c6c6572206973206e6f742061206d6160448201526734b73a30b4b732b960c11b60648201526084016107da565b600082116108d05760405162461bcd60e51b815260206004820152601f60248201527f496e6669416461707465723a204e6f7468696e6720746f207265636f7665720060448201526064016107da565b604051339083156108fc029084906000818181858888f193505050501580156108fd573d6000803e3d6000fd5b506040518281526000907f8c1256b8896378cd5044f80c202f9772b9d77dc85c8a6eb51967210b09bfaa28906020015b60405180910390a25050565b6109637f339759585899103d2ace64958e37e18ccb0504652c81d4a1b8aa80fe2126ab9582610736565b50565b3360008181527fa54247010af6b3693b80aceddfad12e077c5de3571e6243fada502635f0d7d39602052604090205460ff166109f55760405162461bcd60e51b815260206004820152602860248201527f4d61696e7461696e61626c653a2043616c6c6572206973206e6f742061206d6160448201526734b73a30b4b732b960c11b60648201526084016107da565b60005b82811015610a4d57610a3d848483818110610a2357634e487b7160e01b600052603260045260246000fd5b9050602002016020810190610a389190612547565b6114f1565b610a4681612850565b90506109f8565b50505050565b3360008181527fa54247010af6b3693b80aceddfad12e077c5de3571e6243fada502635f0d7d39602052604090205460ff16610ae25760405162461bcd60e51b815260206004820152602860248201527f4d61696e7461696e61626c653a2043616c6c6572206973206e6f742061206d6160448201526734b73a30b4b732b960c11b60648201526084016107da565b61075b6001600160a01b0384168360006116d2565b3360008181527fa54247010af6b3693b80aceddfad12e077c5de3571e6243fada502635f0d7d39602052604090205460ff16610b865760405162461bcd60e51b815260206004820152602860248201527f4d61696e7461696e61626c653a2043616c6c6572206973206e6f742061206d6160448201526734b73a30b4b732b960c11b60648201526084016107da565b81610bd35760405162461bcd60e51b815260206004820152601460248201527f496e76616c6964206761732d657374696d61746500000000000000000000000060448201526064016107da565b600182905560405182815230907ff43f23b7a28e6f8ce6843a21bd7b48bce778aa913b8c8cf459edf7d770e8d38a9060200161092d565b3360008181527fa54247010af6b3693b80aceddfad12e077c5de3571e6243fada502635f0d7d39602052604090205460ff16610c995760405162461bcd60e51b815260206004820152602860248201527f4d61696e7461696e61626c653a2043616c6c6572206973206e6f742061206d6160448201526734b73a30b4b732b960c11b60648201526084016107da565b60008211610ce95760405162461bcd60e51b815260206004820152601f60248201527f496e6669416461707465723a204e6f7468696e6720746f207265636f7665720060448201526064016107da565b610cfd6001600160a01b0384163384611877565b826001600160a01b03167f8c1256b8896378cd5044f80c202f9772b9d77dc85c8a6eb51967210b09bfaa2883604051610d3891815260200190565b60405180910390a2505050565b336107ed8282610760565b60068181548110610d6057600080fd5b90600052602060002090600a9182820401919006600302915054906101000a900462ffffff1681565b600082815260208190526040902060010154610da4816113ca565b61075b8383611472565b6109637f339759585899103d2ace64958e37e18ccb0504652c81d4a1b8aa80fe2126ab9582610d89565b6040516370a0823160e01b81526001600160a01b038281166004830152600091908416906370a082319060240160206040518083038186803b158015610e1d57600080fd5b505afa158015610e31573d6000803e3d6000fd5b505050506040513d601f19601f82011682018060405250810190610e55919061256a565b9050610e6486868686866118a7565b6040516370a0823160e01b81526001600160a01b03838116600483015260009183918616906370a082319060240160206040518083038186803b158015610eaa57600080fd5b505afa158015610ebe573d6000803e3d6000fd5b505050506040513d601f19601f82011682018060405250810190610ee2919061256a565b610eec91906127c1565b905085811015610f3e5760405162461bcd60e51b815260206004820152601760248201527f496e73756666696369656e7420616d6f756e742d6f757400000000000000000060448201526064016107da565b836001600160a01b0316856001600160a01b03167fa84fa0e7fbf322815d2dc8fa56f31ca4a4d3350f0c984dfeddc29fdcbe84aea78989604051610f8c929190918252602082015260400190565b60405180910390a350505050505050565b6000610faa848484611971565b949350505050565b33610fbe600083610736565b6107ed600082610760565b3360008181527fa54247010af6b3693b80aceddfad12e077c5de3571e6243fada502635f0d7d39602052604090205460ff166110585760405162461bcd60e51b815260206004820152602860248201527f4d61696e7461696e61626c653a2043616c6c6572206973206e6f742061206d6160448201526734b73a30b4b732b960c11b60648201526084016107da565b816110a55760405162461bcd60e51b815260206004820152601b60248201527f71756572794761734c696d69742063616e2774206265207a65726f000000000060448201526064016107da565b50600355565b3360008181527fa54247010af6b3693b80aceddfad12e077c5de3571e6243fada502635f0d7d39602052604090205460ff1661113a5760405162461bcd60e51b815260206004820152602860248201527f4d61696e7461696e61626c653a2043616c6c6572206973206e6f742061206d6160448201526734b73a30b4b732b960c11b60648201526084016107da565b50600480547fffffffffffffffffffffffff0000000000000000000000000000000000000000166001600160a01b0392909216919091179055565b600084131561127757336001600160a01b0316630dfe16816040518163ffffffff1660e01b815260040160206040518083038186803b1580156111b757600080fd5b505afa1580156111cb573d6000803e3d6000fd5b505050506040513d601f19601f820116820180604052508101906111ef9190612293565b60405163a9059cbb60e01b8152336004820152602481018690526001600160a01b03919091169063a9059cbb90604401602060405180830381600087803b15801561123957600080fd5b505af115801561124d573d6000803e3d6000fd5b505050506040513d601f19601f8201168201806040525081019061127191906123d4565b50610a4d565b336001600160a01b031663d21220a76040518163ffffffff1660e01b815260040160206040518083038186803b1580156112b057600080fd5b505afa1580156112c4573d6000803e3d6000fd5b505050506040513d601f19601f820116820180604052508101906112e89190612293565b60405163a9059cbb60e01b8152336004820152602481018590526001600160a01b03919091169063a9059cbb90604401602060405180830381600087803b15801561133257600080fd5b505af1158015611346573d6000803e3d6000fd5b505050506040513d601f19601f8201168201806040525081019061136a91906123d4565b5050505050565b6000806000611388846000015185602001516119cf565b9150915060008061139f8785886040015186611a22565b91509150836113b6576113b18261286b565b6113bf565b6113bf8161286b565b979650505050505050565b6109638133611aeb565b6000828152602081815260408083206001600160a01b038516845290915290205460ff166107ed576000828152602081815260408083206001600160a01b03851684529091529020805460ff1916600117905561142e3390565b6001600160a01b0316816001600160a01b0316837f2f8788117e7eff1d82e926ec794901d17c78024a50270940304540a733656f0d60405160405180910390a45050565b6000828152602081815260408083206001600160a01b038516845290915290205460ff16156107ed576000828152602081815260408083206001600160a01b0385168085529252808320805460ff1916905551339285917ff6391f5c32d9c69d2a47ea670b442974b53935d1edc7fd64eb21e047a839171b9190a45050565b62ffffff811660009081526005602052604090205460ff16156115565760405162461bcd60e51b815260206004820152601360248201527f46656520616c726561647920656e61626c65640000000000000000000000000060448201526064016107da565b6040517f22afcccb00000000000000000000000000000000000000000000000000000000815262ffffff821660048201527f00000000000000000000000000000000000000000000000000000000000000006001600160a01b0316906322afcccb9060240160206040518083038186803b1580156115d357600080fd5b505afa1580156115e7573d6000803e3d6000fd5b505050506040513d601f19601f8201168201806040525081019061160b9190612458565b60020b61165a5760405162461bcd60e51b815260206004820152601b60248201527f466163746f727920646f65736e277420737570706f727420666565000000000060448201526064016107da565b6109638162ffffff9081166000818152600560205260408120805460ff19166001908117909155600680549182018155909152600a8082047ff652222313e28459528d920b65115c16c04f3efc82aaedc97be59f3f377c0d3f018054600392909306919091026101000a928302929093021916179055565b80158061177457506040517fdd62ed3e0000000000000000000000000000000000000000000000000000000081523060048201526001600160a01b03838116602483015284169063dd62ed3e9060440160206040518083038186803b15801561173a57600080fd5b505afa15801561174e573d6000803e3d6000fd5b505050506040513d601f19601f82011682018060405250810190611772919061256a565b155b6117e65760405162461bcd60e51b815260206004820152603660248201527f5361666545524332303a20617070726f76652066726f6d206e6f6e2d7a65726f60448201527f20746f206e6f6e2d7a65726f20616c6c6f77616e63650000000000000000000060648201526084016107da565b6040516001600160a01b03831660248201526044810182905261075b9084907f095ea7b300000000000000000000000000000000000000000000000000000000906064015b60408051601f198184030181529190526020810180517bffffffffffffffffffffffffffffffffffffffffffffffffffffffff166001600160e01b031990931692909217909152611b5e565b6040516001600160a01b03831660248201526044810182905261075b90849063a9059cbb60e01b9060640161182b565b6040805160808082018352600080835260208084018290528385018290526060938401829052845192830185526001600160a01b0388811684528716838201528285018a90529282018190528351818152928301909352919061190b908390611c9a565b90508581101561195d5760405162461bcd60e51b815260206004820152601660248201527f496e73756666696369656e7420616d6f756e744f75740000000000000000000060448201526064016107da565b611968848285611d82565b50505050505050565b6040805160808082018352600080835260208084018290528385018290526060938401829052845192830185526001600160a01b0380881684528616908301529281018690529081018290526119c681611da6565b95945050505050565b6001600160a01b0380821690831610600081611a0957611a04600173fffd8963efd1fc6a506488495d951d5263988d26612799565b611a19565b611a196401000276a36001612737565b90509250929050565b6040516001600160a01b038086166024830152841515604483015260648201849052821660848201526000908190819060a40160408051601f198184030181529190526020810180517bffffffffffffffffffffffffffffffffffffffffffffffffffffffff167f90405d36000000000000000000000000000000000000000000000000000000001790529050600080611abb83611ddf565b915091508115611adf5780806020019051810190611ad99190612479565b90955093505b50505094509492505050565b6000828152602081815260408083206001600160a01b038516845290915290205460ff166107ed57611b1c81611e51565b611b27836020611e63565b604051602001611b38929190612669565b60408051601f198184030181529082905262461bcd60e51b82526107da91600401612724565b600080836001600160a01b031683604051611b79919061264d565b6000604051808303816000865af19150503d8060008114611bb6576040519150601f19603f3d011682016040523d82523d6000602084013e611bbb565b606091505b509150915081611c0d5760405162461bcd60e51b815260206004820181905260248201527f5361666545524332303a206c6f772d6c6576656c2063616c6c206661696c656460448201526064016107da565b805115610a4d5780806020019051810190611c2891906123d4565b610a4d5760405162461bcd60e51b815260206004820152602a60248201527f5361666545524332303a204552433230206f7065726174696f6e20646964206e60448201527f6f7420737563636565640000000000000000000000000000000000000000000060648201526084016107da565b600080611caf84600001518560200151612091565b9050600080611cc6866000015187602001516119cf565b91509150600080846001600160a01b031663128acb0830868b60400151878c6040518663ffffffff1660e01b8152600401611d059594939291906126ea565b6040805180830381600087803b158015611d1e57600080fd5b505af1158015611d32573d6000803e3d6000fd5b505050506040513d601f19601f82011682018060405250810190611d569190612479565b9150915083611d6d57611d688261286b565b611d76565b611d768161286b565b98975050505050505050565b306001600160a01b0382161461075b5761075b6001600160a01b0384168284611877565b600080611dbb83600001518460200151612091565b90506001600160a01b03811615611dd957611dd68184611371565b91505b50919050565b6004546003546040516000926060926001600160a01b0390911691611e0590869061264d565b6000604051808303818686fa925050503d8060008114611e41576040519150601f19603f3d011682016040523d82523d6000602084013e611e46565b606091505b509094909350915050565b60606106616001600160a01b03831660145b60606000611e7283600261277a565b611e7d906002612762565b67ffffffffffffffff811115611ea357634e487b7160e01b600052604160045260246000fd5b6040519080825280601f01601f191660200182016040528015611ecd576020820181803683370190505b5090507f300000000000000000000000000000000000000000000000000000000000000081600081518110611f1257634e487b7160e01b600052603260045260246000fd5b60200101906001600160f81b031916908160001a9053507f780000000000000000000000000000000000000000000000000000000000000081600181518110611f6b57634e487b7160e01b600052603260045260246000fd5b60200101906001600160f81b031916908160001a9053506000611f8f84600261277a565b611f9a906001612762565b90505b600181111561203b577f303132333435363738396162636465660000000000000000000000000000000085600f1660108110611fe957634e487b7160e01b600052603260045260246000fd5b1a60f81b82828151811061200d57634e487b7160e01b600052603260045260246000fd5b60200101906001600160f81b031916908160001a90535060049490941c9361203481612804565b9050611f9d565b50831561208a5760405162461bcd60e51b815260206004820181905260248201527f537472696e67733a20686578206c656e67746820696e73756666696369656e7460448201526064016107da565b9392505050565b60008060005b60065481101561226f5760007f00000000000000000000000000000000000000000000000000000000000000006001600160a01b0316631698ee828787600686815481106120f557634e487b7160e01b600052603260045260246000fd5b60009182526020909120600a8083049091015460405160e087901b6001600160e01b03191681526001600160a01b03958616600482015293909416602484015290066003026101000a90910462ffffff16604482015260640160206040518083038186803b15801561216657600080fd5b505afa15801561217a573d6000803e3d6000fd5b505050506040513d601f19601f8201168201806040525081019061219e9190612293565b90506001600160a01b0381166121b4575061225f565b6000816001600160a01b0316631a6865026040518163ffffffff1660e01b815260040160206040518083038186803b1580156121ef57600080fd5b505afa158015612203573d6000803e3d6000fd5b505050506040513d601f19601f820116820180604052508101906122279190612517565b9050836fffffffffffffffffffffffffffffffff16816fffffffffffffffffffffffffffffffff16111561225c578093508194505b50505b61226881612850565b9050612097565b505092915050565b600060208284031215612288578081fd5b813561208a816128b7565b6000602082840312156122a4578081fd5b815161208a816128b7565b600080604083850312156122c1578081fd5b82356122cc816128b7565b915060208301356122dc816128b7565b809150509250929050565b600080600080608085870312156122fc578182fd5b8435612307816128b7565b935060208501359250604085013561231e816128b7565b9150606085013561232e816128b7565b939692955090935050565b6000806040838503121561234b578182fd5b8235612356816128b7565b946020939093013593505050565b60008060208385031215612376578182fd5b823567ffffffffffffffff8082111561238d578384fd5b818501915085601f8301126123a0578384fd5b8135818111156123ae578485fd5b8660208260051b85010111156123c2578485fd5b60209290920196919550909350505050565b6000602082840312156123e5578081fd5b8151801515811461208a578182fd5b600060208284031215612405578081fd5b5035919050565b6000806040838503121561241e578182fd5b8235915060208301356122dc816128b7565b600060208284031215612441578081fd5b81356001600160e01b03198116811461208a578182fd5b600060208284031215612469578081fd5b81518060020b811461208a578182fd5b6000806040838503121561248b578182fd5b505080516020909101519092909150565b600080600080606085870312156124b1578182fd5b8435935060208501359250604085013567ffffffffffffffff808211156124d6578384fd5b818701915087601f8301126124e9578384fd5b8135818111156124f7578485fd5b886020828501011115612508578485fd5b95989497505060200194505050565b600060208284031215612528578081fd5b81516fffffffffffffffffffffffffffffffff8116811461208a578182fd5b600060208284031215612558578081fd5b813562ffffff8116811461208a578182fd5b60006020828403121561257b578081fd5b5051919050565b600080600060608486031215612596578081fd5b8335925060208401356125a8816128b7565b915060408401356125b8816128b7565b809150509250925092565b600080600080600060a086880312156125da578283fd5b853594506020860135935060408601356125f3816128b7565b92506060860135612603816128b7565b91506080860135612613816128b7565b809150509295509295909350565b600081518084526126398160208601602086016127d8565b601f01601f19169290920160200192915050565b6000825161265f8184602087016127d8565b9190910192915050565b7f416363657373436f6e74726f6c3a206163636f756e74200000000000000000008152600083516126a18160178501602088016127d8565b7f206973206d697373696e6720726f6c652000000000000000000000000000000060179184019182015283516126de8160288401602088016127d8565b01602801949350505050565b60006001600160a01b038088168352861515602084015285604084015280851660608401525060a060808301526113bf60a0830184612621565b60208152600061208a6020830184612621565b60006001600160a01b03808316818516808303821115612759576127596128a1565b01949350505050565b60008219821115612775576127756128a1565b500190565b6000816000190483118215151615612794576127946128a1565b500290565b60006001600160a01b03838116908316818110156127b9576127b96128a1565b039392505050565b6000828210156127d3576127d36128a1565b500390565b60005b838110156127f35781810151838201526020016127db565b83811115610a4d5750506000910152565b600081612813576128136128a1565b506000190190565b600181811c9082168061282f57607f821691505b60208210811415611dd957634e487b7160e01b600052602260045260246000fd5b6000600019821415612864576128646128a1565b5060010190565b60007f800000000000000000000000000000000000000000000000000000000000000082141561289d5761289d6128a1565b0390565b634e487b7160e01b600052601160045260246000fd5b6001600160a01b038116811461096357600080fdfea2646970667358221220ca16e0e5da2bb75dc01c14773965a95b7022c54c60d385b10b09473edbe09f8964736f6c63430008040033a54247010af6b3693b80aceddfad12e077c5de3571e6243fada502635f0d7d394d61696e7461696e61626c653a2043616c6c6572206973206e6f742061206d61",
  "devdoc": {
    "kind": "dev",
    "methods": {
      "getRoleAdmin(bytes32)": {
        "details": "Returns the admin role that controls `role`. See {grantRole} and {revokeRole}. To change a role's admin, use {_setRoleAdmin}."
      },
      "grantRole(bytes32,address)": {
        "details": "Grants `role` to `account`. If `account` had not been already granted `role`, emits a {RoleGranted} event. Requirements: - the caller must have ``role``'s admin role. May emit a {RoleGranted} event."
      },
      "hasRole(bytes32,address)": {
        "details": "Returns `true` if `account` has been granted `role`."
      },
      "renounceRole(bytes32,address)": {
        "details": "Revokes `role` from the calling account. Roles are often managed via {grantRole} and {revokeRole}: this function's purpose is to provide a mechanism for accounts to lose their privileges if they are compromised (such as when a trusted device is misplaced). If the calling account had been revoked `role`, emits a {RoleRevoked} event. Requirements: - the caller must be `account`. May emit a {RoleRevoked} event."
      },
      "revokeRole(bytes32,address)": {
        "details": "Revokes `role` from `account`. If `account` had been granted `role`, emits a {RoleRevoked} event. Requirements: - the caller must have ``role``'s admin role. May emit a {RoleRevoked} event."
      },
      "supportsInterface(bytes4)": {
        "details": "See {IERC165-supportsInterface}."
      }
    },
    "version": 1
  },
  "userdoc": {
    "kind": "user",
    "methods": {},
    "version": 1
  },
  "storageLayout": {
    "storage": [
      {
        "astId": 24,
        "contract": "src/contracts/adapters/UniswapV3Adapter.sol:UniswapV3Adapter",
        "label": "_roles",
        "offset": 0,
        "slot": "0",
        "type": "t_mapping(t_bytes32,t_struct(RoleData)19_storage)"
      },
      {
        "astId": 1696,
        "contract": "src/contracts/adapters/UniswapV3Adapter.sol:UniswapV3Adapter",
        "label": "swapGasEstimate",
        "offset": 0,
        "slot": "1",
        "type": "t_uint256"
      },
      {
        "astId": 1698,
        "contract": "src/contracts/adapters/UniswapV3Adapter.sol:UniswapV3Adapter",
        "label": "name",
        "offset": 0,
        "slot": "2",
        "type": "t_string_storage"
      },
      {
        "astId": 3753,
        "contract": "src/contracts/adapters/UniswapV3Adapter.sol:UniswapV3Adapter",
        "label": "quoterGasLimit",
        "offset": 0,
        "slot": "3",
        "type": "t_uint256"
      },
      {
        "astId": 3755,
        "contract": "src/contracts/adapters/UniswapV3Adapter.sol:UniswapV3Adapter",
        "label": "quoter",
        "offset": 0,
        "slot": "4",
        "type": "t_address"
      },
      {
        "astId": 3475,
        "contract": "src/contracts/adapters/UniswapV3Adapter.sol:UniswapV3Adapter",
        "label": "isFeeAmountEnabled",
        "offset": 0,
        "slot": "5",
        "type": "t_mapping(t_uint24,t_bool)"
      },
      {
        "astId": 3478,
        "contract": "src/contracts/adapters/UniswapV3Adapter.sol:UniswapV3Adapter",
        "label": "feeAmounts",
        "offset": 0,
        "slot": "6",
        "type": "t_array(t_uint24)dyn_storage"
      }
    ],
    "types": {
      "t_address": {
        "encoding": "inplace",
        "label": "address",
        "numberOfBytes": "20"
      },
      "t_array(t_uint24)dyn_storage": {
        "base": "t_uint24",
        "encoding": "dynamic_array",
        "label": "uint24[]",
        "numberOfBytes": "32"
      },
      "t_bool": {
        "encoding": "inplace",
        "label": "bool",
        "numberOfBytes": "1"
      },
      "t_bytes32": {
        "encoding": "inplace",
        "label": "bytes32",
        "numberOfBytes": "32"
      },
      "t_mapping(t_address,t_bool)": {
        "encoding": "mapping",
        "key": "t_address",
        "label": "mapping(address => bool)",
        "numberOfBytes": "32",
        "value": "t_bool"
      },
      "t_mapping(t_bytes32,t_struct(RoleData)19_storage)": {
        "encoding": "mapping",
        "key": "t_bytes32",
        "label": "mapping(bytes32 => struct AccessControl.RoleData)",
        "numberOfBytes": "32",
        "value": "t_struct(RoleData)19_storage"
      },
      "t_mapping(t_uint24,t_bool)": {
        "encoding": "mapping",
        "key": "t_uint24",
        "label": "mapping(uint24 => bool)",
        "numberOfBytes": "32",
        "value": "t_bool"
      },
      "t_string_storage": {
        "encoding": "bytes",
        "label": "string",
        "numberOfBytes": "32"
      },
      "t_struct(RoleData)19_storage": {
        "encoding": "inplace",
        "label": "struct AccessControl.RoleData",
        "members": [
          {
            "astId": 16,
            "contract": "src/contracts/adapters/UniswapV3Adapter.sol:UniswapV3Adapter",
            "label": "members",
            "offset": 0,
            "slot": "0",
            "type": "t_mapping(t_address,t_bool)"
          },
          {
            "astId": 18,
            "contract": "src/contracts/adapters/UniswapV3Adapter.sol:UniswapV3Adapter",
            "label": "adminRole",
            "offset": 0,
            "slot": "1",
            "type": "t_bytes32"
          }
        ],
        "numberOfBytes": "64"
      },
      "t_uint24": {
        "encoding": "inplace",
        "label": "uint24",
        "numberOfBytes": "3"
      },
      "t_uint256": {
        "encoding": "inplace",
        "label": "uint256",
        "numberOfBytes": "32"
      }
    }
  }
}