{
  "_format": "hh-sol-artifact-1",
  "contractName": "Token",
  "sourceName": "src/contracts/Token.sol",
  "abi": [
    {
      "inputs": [
        {
          "internalType": "string",
          "name": "name_",
          "type": "string"
        },
        {
          "internalType": "string",
          "name": "symbol_",
          "type": "string"
        }
      ],
      "stateMutability": "nonpayable",
      "type": "constructor"
    },
    {
      "inputs": [],
      "name": "InvalidShortString",
      "type": "error"
    },
    {
      "inputs": [
        {
          "internalType": "string",
          "name": "str",
          "type": "string"
        }
      ],
      "name": "StringTooLong",
      "type": "error"
    },
    {
      "anonymous": false,
      "inputs": [
        {
          "indexed": true,
          "internalType": "address",
          "name": "owner",
          "type": "address"
        },
        {
          "indexed": true,
          "internalType": "address",
          "name": "spender",
          "type": "address"
        },
        {
          "indexed": false,
          "internalType": "uint256",
          "name": "value",
          "type": "uint256"
        }
      ],
      "name": "Approval",
      "type": "event"
    },
    {
      "anonymous": false,
      "inputs": [],
      "name": "EIP712DomainChanged",
      "type": "event"
    },
    {
      "anonymous": false,
      "inputs": [
        {
          "indexed": true,
          "internalType": "address",
          "name": "previousOwner",
          "type": "address"
        },
        {
          "indexed": true,
          "internalType": "address",
          "name": "newOwner",
          "type": "address"
        }
      ],
      "name": "OwnershipTransferred",
      "type": "event"
    },
    {
      "anonymous": false,
      "inputs": [
        {
          "indexed": true,
          "internalType": "address",
          "name": "from",
          "type": "address"
        },
        {
          "indexed": true,
          "internalType": "address",
          "name": "to",
          "type": "address"
        },
        {
          "indexed": false,
          "internalType": "uint256",
          "name": "value",
          "type": "uint256"
        }
      ],
      "name": "Transfer",
      "type": "event"
    },
    {
      "inputs": [],
      "name": "DOMAIN_SEPARATOR",
      "outputs": [
        {
          "internalType": "bytes32",
          "name": "",
          "type": "bytes32"
        }
      ],
      "stateMutability": "view",
      "type": "function"
    },
    {
      "inputs": [
        {
          "internalType": "address",
          "name": "owner",
          "type": "address"
        },
        {
          "internalType": "address",
          "name": "spender",
          "type": "address"
        }
      ],
      "name": "allowance",
      "outputs": [
        {
          "internalType": "uint256",
          "name": "",
          "type": "uint256"
        }
      ],
      "stateMutability": "view",
      "type": "function"
    },
    {
      "inputs": [
        {
          "internalType": "address",
          "name": "spender",
          "type": "address"
        },
        {
          "internalType": "uint256",
          "name": "amount",
          "type": "uint256"
        }
      ],
      "name": "approve",
      "outputs": [
        {
          "internalType": "bool",
          "name": "",
          "type": "bool"
        }
      ],
      "stateMutability": "nonpayable",
      "type": "function"
    },
    {
      "inputs": [
        {
          "internalType": "address",
          "name": "account",
          "type": "address"
        }
      ],
      "name": "balanceOf",
      "outputs": [
        {
          "internalType": "uint256",
          "name": "",
          "type": "uint256"
        }
      ],
      "stateMutability": "view",
      "type": "function"
    },
    {
      "inputs": [],
      "name": "decimals",
      "outputs": [
        {
          "internalType": "uint8",
          "name": "",
          "type": "uint8"
        }
      ],
      "stateMutability": "view",
      "type": "function"
    },
    {
      "inputs": [
        {
          "internalType": "address",
          "name": "spender",
          "type": "address"
        },
        {
          "internalType": "uint256",
          "name": "subtractedValue",
          "type": "uint256"
        }
      ],
      "name": "decreaseAllowance",
      "outputs": [
        {
          "internalType": "bool",
          "name": "",
          "type": "bool"
        }
      ],
      "stateMutability": "nonpayable",
      "type": "function"
    },
    {
      "inputs": [],
      "name": "eip712Domain",
      "outputs": [
        {
          "internalType": "bytes1",
          "name": "fields",
          "type": "bytes1"
        },
        {
          "internalType": "string",
          "name": "name",
          "type": "string"
        },
        {
          "internalType": "string",
          "name": "version",
          "type": "string"
        },
        {
          "internalType": "uint256",
          "name": "chainId",
          "type": "uint256"
        },
        {
          "internalType": "address",
          "name": "verifyingContract",
          "type": "address"
        },
        {
          "internalType": "bytes32",
          "name": "salt",
          "type": "bytes32"
        },
        {
          "internalType": "uint256[]",
          "name": "extensions",
          "type": "uint256[]"
        }
      ],
      "stateMutability": "view",
      "type": "function"
    },
    {
      "inputs": [
        {
          "internalType": "address",
          "name": "spender",
          "type": "address"
        },
        {
          "internalType": "uint256",
          "name": "addedValue",
          "type": "uint256"
        }
      ],
      "name": "increaseAllowance",
      "outputs": [
        {
          "internalType": "bool",
          "name": "",
          "type": "bool"
        }
      ],
      "stateMutability": "nonpayable",
      "type": "function"
    },
    {
      "inputs": [
        {
          "internalType": "address",
          "name": "to",
          "type": "address"
        },
        {
          "internalType": "uint256",
          "name": "amount",
          "type": "uint256"
        }
      ],
      "name": "mint",
      "outputs": [],
      "stateMutability": "nonpayable",
      "type": "function"
    },
    {
      "inputs": [],
      "name": "name",
      "outputs": [
        {
          "internalType": "string",
          "name": "",
          "type": "string"
        }
      ],
      "stateMutability": "view",
      "type": "function"
    },
    {
      "inputs": [
        {
          "internalType": "address",
          "name": "owner",
          "type": "address"
        }
      ],
      "name": "nonces",
      "outputs": [
        {
          "internalType": "uint256",
          "name": "",
          "type": "uint256"
        }
      ],
      "stateMutability": "view",
      "type": "function"
    },
    {
      "inputs": [],
      "name": "owner",
      "outputs": [
        {
          "internalType": "address",
          "name": "",
          "type": "address"
        }
      ],
      "stateMutability": "view",
      "type": "function"
    },
    {
      "inputs": [
        {
          "internalType": "address",
          "name": "owner",
          "type": "address"
        },
        {
          "internalType": "address",
          "name": "spender",
          "type": "address"
        },
        {
          "internalType": "uint256",
          "name": "value",
          "type": "uint256"
        },
        {
          "internalType": "uint256",
          "name": "deadline",
          "type": "uint256"
        },
        {
          "internalType": "uint8",
          "name": "v",
          "type": "uint8"
        },
        {
          "internalType": "bytes32",
          "name": "r",
          "type": "bytes32"
        },
        {
          "internalType": "bytes32",
          "name": "s",
          "type": "bytes32"
        }
      ],
      "name": "permit",
      "outputs": [],
      "stateMutability": "nonpayable",
      "type": "function"
    },
    {
      "inputs": [],
      "name": "renounceOwnership",
      "outputs": [],
      "stateMutability": "nonpayable",
      "type": "function"
    },
    {
      "inputs": [],
      "name": "symbol",
      "outputs": [
        {
          "internalType": "string",
          "name": "",
          "type": "string"
        }
      ],
      "stateMutability": "view",
      "type": "function"
    },
    {
      "inputs": [],
      "name": "totalSupply",
      "outputs": [
        {
          "internalType": "uint256",
          "name": "",
          "type": "uint256"
        }
      ],
      "stateMutability": "view",
      "type": "function"
    },
    {
      "inputs": [
        {
          "internalType": "address",
          "name": "to",
          "type": "address"
        },
        {
          "internalType": "uint256",
          "name": "amount",
          "type": "uint256"
        }
      ],
      "name": "transfer",
      "outputs": [
        {
          "internalType": "bool",
          "name": "",
          "type": "bool"
        }
      ],
      "stateMutability": "nonpayable",
      "type": "function"
    },
    {
      "inputs": [
        {
          "internalType": "address",
          "name": "from",
          "type": "address"
        },
        {
          "internalType": "address",
          "name": "to",
          "type": "address"
        },
        {
          "internalType": "uint256",
          "name": "amount",
          "type": "uint256"
        }
      ],
      "name": "transferFrom",
      "outputs": [
        {
          "internalType": "bool",
          "name": "",
          "type": "bool"
        }
      ],
      "stateMutability": "nonpayable",
      "type": "function"
    },
    {
      "inputs": [
        {
          "internalType": "address",
          "name": "newOwner",
          "type": "address"
        }
      ],
      "name": "transferOwnership",
      "outputs": [],
      "stateMutability": "nonpayable",
      "type": "function"
    }
  ],
  "bytecode": "0x6101606040523480156200001257600080fd5b5060405162001ce238038062001ce28339810160408190526200003591620004c8565b8180604051806040016040528060018152602001603160f81b815250848481600390805190602001906200006b92919062000348565b5080516200008190600490602084019062000348565b5050506200009e620000986200019160201b60201c565b62000195565b620000b9600683620001e760201b620007ba1790919060201c565b61012052620000d6816007620001e7602090811b620007ba17901c565b61014052815160208084019190912060e052815190820120610100524660a0526200016460e05161010051604080517f8b73c3c69bb8fe3d512ecc4cf759cc79239f7b179b0ffacaa9a75d522b39400f60208201529081019290925260608201524660808201523060a082015260009060c00160405160208183030381529060405280519060200120905090565b6080525050503060601b60c05262000189336b033b2e3c9fd0803ce80000006200023b565b5050620005ed565b3390565b600580546001600160a01b038381166001600160a01b0319831681179093556040519116919082907f8be0079c531659141344cd1fd0a4f28419497f9722a3daafe3b4186f6b6457e090600090a35050565b60006020835110156200020757620001ff8362000302565b905062000235565b826200021e836200034560201b620007f11760201c565b81516200022f926020019062000348565b5060ff90505b92915050565b6001600160a01b038216620002975760405162461bcd60e51b815260206004820152601f60248201527f45524332303a206d696e7420746f20746865207a65726f20616464726573730060448201526064015b60405180910390fd5b8060026000828254620002ab919062000532565b90915550506001600160a01b038216600081815260208181526040808320805486019055518481527fddf252ad1be2c89b69c2b068fc378daa952ba7f163c4a11628f55a4df523b3ef910160405180910390a35050565b600080829050601f8151111562000330578260405163305a27a960e01b81526004016200028e919062000559565b80516200033d826200058e565b179392505050565b90565b8280546200035690620005b6565b90600052602060002090601f0160209004810192826200037a5760008555620003c5565b82601f106200039557805160ff1916838001178555620003c5565b82800160010185558215620003c5579182015b82811115620003c5578251825591602001919060010190620003a8565b50620003d3929150620003d7565b5090565b5b80821115620003d35760008155600101620003d8565b634e487b7160e01b600052604160045260246000fd5b60005b838110156200042157818101518382015260200162000407565b8381111562000431576000848401525b50505050565b600082601f8301126200044957600080fd5b81516001600160401b0380821115620004665762000466620003ee565b604051601f8301601f19908116603f01168101908282118183101715620004915762000491620003ee565b81604052838152866020858801011115620004ab57600080fd5b620004be84602083016020890162000404565b9695505050505050565b60008060408385031215620004dc57600080fd5b82516001600160401b0380821115620004f457600080fd5b620005028683870162000437565b935060208501519150808211156200051957600080fd5b50620005288582860162000437565b9150509250929050565b600082198211156200055457634e487b7160e01b600052601160045260246000fd5b500190565b60208152600082518060208401526200057a81604085016020870162000404565b601f01601f19169190910160400192915050565b80516020808301519190811015620005b0576000198160200360031b1b821691505b50919050565b600181811c90821680620005cb57607f821691505b60208210811415620005b057634e487b7160e01b600052602260045260246000fd5b60805160a05160c05160601c60e0516101005161012051610140516116976200064b600039600061048e0152600061046301526000610ca501526000610c7d01526000610bd801526000610c0201526000610c2c01526116976000f3fe608060405234801561001057600080fd5b50600436106101515760003560e01c8063715018a6116100cd578063a457c2d711610081578063d505accf11610066578063d505accf146102a3578063dd62ed3e146102b6578063f2fde38b146102ef57600080fd5b8063a457c2d71461027d578063a9059cbb1461029057600080fd5b806384b0196e116100b257806384b0196e1461023f5780638da5cb5b1461025a57806395d89b411461027557600080fd5b8063715018a6146102245780637ecebe001461022c57600080fd5b8063313ce56711610124578063395093511161010957806339509351146101d357806340c10f19146101e657806370a08231146101fb57600080fd5b8063313ce567146101bc5780633644e515146101cb57600080fd5b806306fdde0314610156578063095ea7b31461017457806318160ddd1461019757806323b872dd146101a9575b600080fd5b61015e610302565b60405161016b91906113bd565b60405180910390f35b6101876101823660046113f3565b610394565b604051901515815260200161016b565b6002545b60405190815260200161016b565b6101876101b736600461141d565b6103ae565b6040516012815260200161016b565b61019b6103d2565b6101876101e13660046113f3565b6103e1565b6101f96101f43660046113f3565b610420565b005b61019b610209366004611459565b6001600160a01b031660009081526020819052604090205490565b6101f9610436565b61019b61023a366004611459565b61044a565b610247610455565b60405161016b9796959493929190611474565b6005546040516001600160a01b03909116815260200161016b565b61015e6104fa565b61018761028b3660046113f3565b610509565b61018761029e3660046113f3565b6105b8565b6101f96102b1366004611526565b6105c6565b61019b6102c4366004611599565b6001600160a01b03918216600090815260016020908152604080832093909416825291909152205490565b6101f96102fd366004611459565b61072a565b606060038054610311906115cc565b80601f016020809104026020016040519081016040528092919081815260200182805461033d906115cc565b801561038a5780601f1061035f5761010080835404028352916020019161038a565b820191906000526020600020905b81548152906001019060200180831161036d57829003601f168201915b5050505050905090565b6000336103a28185856107f4565b60019150505b92915050565b6000336103bc85828561094c565b6103c78585856109de565b506001949350505050565b60006103dc610bcb565b905090565b3360008181526001602090815260408083206001600160a01b03871684529091528120549091906103a2908290869061041b908790611601565b6107f4565b610428610cf6565b6104328282610d50565b5050565b61043e610cf6565b6104486000610e0f565b565b60006103a882610e79565b6000606080828080836104897f00000000000000000000000000000000000000000000000000000000000000006006610e97565b6104b47f00000000000000000000000000000000000000000000000000000000000000006007610e97565b604080516000808252602082019092527f0f000000000000000000000000000000000000000000000000000000000000009b939a50919850469750309650945092509050565b606060048054610311906115cc565b3360008181526001602090815260408083206001600160a01b0387168452909152812054909190838110156105ab5760405162461bcd60e51b815260206004820152602560248201527f45524332303a2064656372656173656420616c6c6f77616e63652062656c6f7760448201527f207a65726f00000000000000000000000000000000000000000000000000000060648201526084015b60405180910390fd5b6103c782868684036107f4565b6000336103a28185856109de565b834211156106165760405162461bcd60e51b815260206004820152601d60248201527f45524332305065726d69743a206578706972656420646561646c696e6500000060448201526064016105a2565b60007f6e71edae12b1b97f4d1f60370fef10105fa2faae0126114a169c64845d6126c98888886106458c610f3b565b6040805160208101969096526001600160a01b0394851690860152929091166060840152608083015260a082015260c0810186905260e00160405160208183030381529060405280519060200120905060006106a082610f63565b905060006106b082878787610fab565b9050896001600160a01b0316816001600160a01b0316146107135760405162461bcd60e51b815260206004820152601e60248201527f45524332305065726d69743a20696e76616c6964207369676e6174757265000060448201526064016105a2565b61071e8a8a8a6107f4565b50505050505050505050565b610732610cf6565b6001600160a01b0381166107ae5760405162461bcd60e51b815260206004820152602660248201527f4f776e61626c653a206e6577206f776e657220697320746865207a65726f206160448201527f646472657373000000000000000000000000000000000000000000000000000060648201526084016105a2565b6107b781610e0f565b50565b60006020835110156107d6576107cf83610fd3565b90506103a8565b828281516107e792602001906112d7565b5060ff90506103a8565b90565b6001600160a01b03831661086f5760405162461bcd60e51b8152602060048201526024808201527f45524332303a20617070726f76652066726f6d20746865207a65726f2061646460448201527f726573730000000000000000000000000000000000000000000000000000000060648201526084016105a2565b6001600160a01b0382166108eb5760405162461bcd60e51b815260206004820152602260248201527f45524332303a20617070726f766520746f20746865207a65726f20616464726560448201527f737300000000000000000000000000000000000000000000000000000000000060648201526084016105a2565b6001600160a01b0383811660008181526001602090815260408083209487168084529482529182902085905590518481527f8c5be1e5ebec7d5bd14f71427d1e84f3dd0314c0f7b2291e5b200ac8c7c3b925910160405180910390a3505050565b6001600160a01b0383811660009081526001602090815260408083209386168352929052205460001981146109d857818110156109cb5760405162461bcd60e51b815260206004820152601d60248201527f45524332303a20696e73756666696369656e7420616c6c6f77616e636500000060448201526064016105a2565b6109d884848484036107f4565b50505050565b6001600160a01b038316610a5a5760405162461bcd60e51b815260206004820152602560248201527f45524332303a207472616e736665722066726f6d20746865207a65726f20616460448201527f647265737300000000000000000000000000000000000000000000000000000060648201526084016105a2565b6001600160a01b038216610ad65760405162461bcd60e51b815260206004820152602360248201527f45524332303a207472616e7366657220746f20746865207a65726f206164647260448201527f657373000000000000000000000000000000000000000000000000000000000060648201526084016105a2565b6001600160a01b03831660009081526020819052604090205481811015610b655760405162461bcd60e51b815260206004820152602660248201527f45524332303a207472616e7366657220616d6f756e742065786365656473206260448201527f616c616e6365000000000000000000000000000000000000000000000000000060648201526084016105a2565b6001600160a01b03848116600081815260208181526040808320878703905593871680835291849020805487019055925185815290927fddf252ad1be2c89b69c2b068fc378daa952ba7f163c4a11628f55a4df523b3ef910160405180910390a36109d8565b6000306001600160a01b037f000000000000000000000000000000000000000000000000000000000000000016148015610c2457507f000000000000000000000000000000000000000000000000000000000000000046145b15610c4e57507f000000000000000000000000000000000000000000000000000000000000000090565b6103dc604080517f8b73c3c69bb8fe3d512ecc4cf759cc79239f7b179b0ffacaa9a75d522b39400f60208201527f0000000000000000000000000000000000000000000000000000000000000000918101919091527f000000000000000000000000000000000000000000000000000000000000000060608201524660808201523060a082015260009060c00160405160208183030381529060405280519060200120905090565b6005546001600160a01b031633146104485760405162461bcd60e51b815260206004820181905260248201527f4f776e61626c653a2063616c6c6572206973206e6f7420746865206f776e657260448201526064016105a2565b6001600160a01b038216610da65760405162461bcd60e51b815260206004820152601f60248201527f45524332303a206d696e7420746f20746865207a65726f20616464726573730060448201526064016105a2565b8060026000828254610db89190611601565b90915550506001600160a01b038216600081815260208181526040808320805486019055518481527fddf252ad1be2c89b69c2b068fc378daa952ba7f163c4a11628f55a4df523b3ef910160405180910390a35050565b600580546001600160a01b038381167fffffffffffffffffffffffff0000000000000000000000000000000000000000831681179093556040519116919082907f8be0079c531659141344cd1fd0a4f28419497f9722a3daafe3b4186f6b6457e090600090a35050565b6001600160a01b0381166000908152600860205260408120546103a8565b606060ff8314610eaa576107cf8361102a565b818054610eb6906115cc565b80601f0160208091040260200160405190810160405280929190818152602001828054610ee2906115cc565b8015610f2f5780601f10610f0457610100808354040283529160200191610f2f565b820191906000526020600020905b815481529060010190602001808311610f1257829003601f168201915b505050505090506103a8565b6001600160a01b03811660009081526008602052604090208054600181018255905b50919050565b60006103a8610f70610bcb565b836040517f19010000000000000000000000000000000000000000000000000000000000008152600281019290925260228201526042902090565b6000806000610fbc87878787611069565b91509150610fc98161112d565b5095945050505050565b600080829050601f8151111561101757826040517f305a27a90000000000000000000000000000000000000000000000000000000081526004016105a291906113bd565b805161102282611627565b179392505050565b6060600061103783611296565b604080516020808252818301909252919250600091906020820181803683375050509182525060208101929092525090565b6000807f7fffffffffffffffffffffffffffffff5d576e7357a4501ddfe92f46681b20a08311156110a05750600090506003611124565b6040805160008082526020820180845289905260ff881692820192909252606081018690526080810185905260019060a0016020604051602081039080840390855afa1580156110f4573d6000803e3d6000fd5b5050604051601f1901519150506001600160a01b03811661111d57600060019250925050611124565b9150600090505b94509492505050565b60008160048111156111415761114161164b565b141561114a5750565b600181600481111561115e5761115e61164b565b14156111ac5760405162461bcd60e51b815260206004820152601860248201527f45434453413a20696e76616c6964207369676e6174757265000000000000000060448201526064016105a2565b60028160048111156111c0576111c061164b565b141561120e5760405162461bcd60e51b815260206004820152601f60248201527f45434453413a20696e76616c6964207369676e6174757265206c656e6774680060448201526064016105a2565b60038160048111156112225761122261164b565b14156107b75760405162461bcd60e51b815260206004820152602260248201527f45434453413a20696e76616c6964207369676e6174757265202773272076616c60448201527f756500000000000000000000000000000000000000000000000000000000000060648201526084016105a2565b600060ff8216601f8111156103a8576040517fb3512b0c00000000000000000000000000000000000000000000000000000000815260040160405180910390fd5b8280546112e3906115cc565b90600052602060002090601f016020900481019282611305576000855561134b565b82601f1061131e57805160ff191683800117855561134b565b8280016001018555821561134b579182015b8281111561134b578251825591602001919060010190611330565b5061135792915061135b565b5090565b5b80821115611357576000815560010161135c565b6000815180845260005b818110156113965760208185018101518683018201520161137a565b818111156113a8576000602083870101525b50601f01601f19169290920160200192915050565b6020815260006113d06020830184611370565b9392505050565b80356001600160a01b03811681146113ee57600080fd5b919050565b6000806040838503121561140657600080fd5b61140f836113d7565b946020939093013593505050565b60008060006060848603121561143257600080fd5b61143b846113d7565b9250611449602085016113d7565b9150604084013590509250925092565b60006020828403121561146b57600080fd5b6113d0826113d7565b7fff00000000000000000000000000000000000000000000000000000000000000881681526000602060e0818401526114b060e084018a611370565b83810360408501526114c2818a611370565b606085018990526001600160a01b038816608086015260a0850187905284810360c0860152855180825283870192509083019060005b81811015611514578351835292840192918401916001016114f8565b50909c9b505050505050505050505050565b600080600080600080600060e0888a03121561154157600080fd5b61154a886113d7565b9650611558602089016113d7565b95506040880135945060608801359350608088013560ff8116811461157c57600080fd5b9699959850939692959460a0840135945060c09093013592915050565b600080604083850312156115ac57600080fd5b6115b5836113d7565b91506115c3602084016113d7565b90509250929050565b600181811c908216806115e057607f821691505b60208210811415610f5d57634e487b7160e01b600052602260045260246000fd5b6000821982111561162257634e487b7160e01b600052601160045260246000fd5b500190565b80516020808301519190811015610f5d5760001960209190910360031b1b16919050565b634e487b7160e01b600052602160045260246000fdfea2646970667358221220e4bb30e72c20201c43332ad27168373e08b4865691394f98fd7d4e65d83e1e8564736f6c63430008080033",
  "linkReferences": {},
  "deployedLinkReferences": {}
}