{
  "address": "0x1f28618A8334093240c1BA4847c517c8eDf687c4",
  "abi": [
    {
      "inputs": [
        {
          "internalType": "string",
          "name": "_name",
          "type": "string"
        },
        {
          "internalType": "uint256",
          "name": "_swapGasEstimate",
          "type": "uint256"
        },
        {
          "internalType": "uint256",
          "name": "_quoterGasLimit",
          "type": "uint256"
        },
        {
          "internalType": "address",
          "name": "_quoter",
          "type": "address"
        },
        {
          "internalType": "address",
          "name": "_factory",
          "type": "address"
        },
        {
          "internalType": "uint24[]",
          "name": "_defaultFees",
          "type": "uint24[]"
        }
      ],
      "stateMutability": "nonpayable",
      "type": "constructor"
    },
    {
      "anonymous": false,
      "inputs": [
        {
          "indexed": true,
          "internalType": "address",
          "name": "_tokenFrom",
          "type": "address"
        },
        {
          "indexed": true,
          "internalType": "address",
          "name": "_tokenTo",
          "type": "address"
        },
        {
          "indexed": false,
          "internalType": "uint256",
          "name": "_amountIn",
          "type": "uint256"
        },
        {
          "indexed": false,
          "internalType": "uint256",
          "name": "_amountOut",
          "type": "uint256"
        }
      ],
      "name": "InfiAdapterSwap",
      "type": "event"
    },
    {
      "anonymous": false,
      "inputs": [
        {
          "indexed": true,
          "internalType": "address",
          "name": "_asset",
          "type": "address"
        },
        {
          "indexed": false,
          "internalType": "uint256",
          "name": "amount",
          "type": "uint256"
        }
      ],
      "name": "Recovered",
      "type": "event"
    },
    {
      "anonymous": false,
      "inputs": [
        {
          "indexed": true,
          "internalType": "bytes32",
          "name": "role",
          "type": "bytes32"
        },
        {
          "indexed": true,
          "internalType": "bytes32",
          "name": "previousAdminRole",
          "type": "bytes32"
        },
        {
          "indexed": true,
          "internalType": "bytes32",
          "name": "newAdminRole",
          "type": "bytes32"
        }
      ],
      "name": "RoleAdminChanged",
      "type": "event"
    },
    {
      "anonymous": false,
      "inputs": [
        {
          "indexed": true,
          "internalType": "bytes32",
          "name": "role",
          "type": "bytes32"
        },
        {
          "indexed": true,
          "internalType": "address",
          "name": "account",
          "type": "address"
        },
        {
          "indexed": true,
          "internalType": "address",
          "name": "sender",
          "type": "address"
        }
      ],
      "name": "RoleGranted",
      "type": "event"
    },
    {
      "anonymous": false,
      "inputs": [
        {
          "indexed": true,
          "internalType": "bytes32",
          "name": "role",
          "type": "bytes32"
        },
        {
          "indexed": true,
          "internalType": "address",
          "name": "account",
          "type": "address"
        },
        {
          "indexed": true,
          "internalType": "address",
          "name": "sender",
          "type": "address"
        }
      ],
      "name": "RoleRevoked",
      "type": "event"
    },
    {
      "anonymous": false,
      "inputs": [
        {
          "indexed": true,
          "internalType": "address",
          "name": "_adapter",
          "type": "address"
        },
        {
          "indexed": false,
          "internalType": "uint256",
          "name": "_newEstimate",
          "type": "uint256"
        }
      ],
      "name": "UpdatedGasEstimate",
      "type": "event"
    },
    {
      "inputs": [],
      "name": "DEFAULT_ADMIN_ROLE",
      "outputs": [
        {
          "internalType": "bytes32",
          "name": "",
          "type": "bytes32"
        }
      ],
      "stateMutability": "view",
      "type": "function"
    },
    {
      "inputs": [],
      "name": "MAINTAINER_ROLE",
      "outputs": [
        {
          "internalType": "bytes32",
          "name": "",
          "type": "bytes32"
        }
      ],
      "stateMutability": "view",
      "type": "function"
    },
    {
      "inputs": [
        {
          "internalType": "address",
          "name": "addedMaintainer",
          "type": "address"
        }
      ],
      "name": "addMaintainer",
      "outputs": [],
      "stateMutability": "nonpayable",
      "type": "function"
    },
    {
      "inputs": [
        {
          "internalType": "uint24[]",
          "name": "_amounts",
          "type": "uint24[]"
        }
      ],
      "name": "enableFeeAmounts",
      "outputs": [],
      "stateMutability": "nonpayable",
      "type": "function"
    },
    {
      "inputs": [
        {
          "internalType": "uint256",
          "name": "",
          "type": "uint256"
        }
      ],
      "name": "feeAmounts",
      "outputs": [
        {
          "internalType": "uint24",
          "name": "",
          "type": "uint24"
        }
      ],
      "stateMutability": "view",
      "type": "function"
    },
    {
      "inputs": [
        {
          "internalType": "address",
          "name": "pool",
          "type": "address"
        },
        {
          "internalType": "int256",
          "name": "amountIn",
          "type": "int256"
        },
        {
          "internalType": "address",
          "name": "tokenIn",
          "type": "address"
        },
        {
          "internalType": "address",
          "name": "tokenOut",
          "type": "address"
        }
      ],
      "name": "getQuoteForPool",
      "outputs": [
        {
          "internalType": "uint256",
          "name": "",
          "type": "uint256"
        }
      ],
      "stateMutability": "view",
      "type": "function"
    },
    {
      "inputs": [
        {
          "internalType": "bytes32",
          "name": "role",
          "type": "bytes32"
        }
      ],
      "name": "getRoleAdmin",
      "outputs": [
        {
          "internalType": "bytes32",
          "name": "",
          "type": "bytes32"
        }
      ],
      "stateMutability": "view",
      "type": "function"
    },
    {
      "inputs": [
        {
          "internalType": "bytes32",
          "name": "role",
          "type": "bytes32"
        },
        {
          "internalType": "address",
          "name": "account",
          "type": "address"
        }
      ],
      "name": "grantRole",
      "outputs": [],
      "stateMutability": "nonpayable",
      "type": "function"
    },
    {
      "inputs": [
        {
          "internalType": "bytes32",
          "name": "role",
          "type": "bytes32"
        },
        {
          "internalType": "address",
          "name": "account",
          "type": "address"
        }
      ],
      "name": "hasRole",
      "outputs": [
        {
          "internalType": "bool",
          "name": "",
          "type": "bool"
        }
      ],
      "stateMutability": "view",
      "type": "function"
    },
    {
      "inputs": [
        {
          "internalType": "uint24",
          "name": "",
          "type": "uint24"
        }
      ],
      "name": "isFeeAmountEnabled",
      "outputs": [
        {
          "internalType": "bool",
          "name": "",
          "type": "bool"
        }
      ],
      "stateMutability": "view",
      "type": "function"
    },
    {
      "inputs": [],
      "name": "name",
      "outputs": [
        {
          "internalType": "string",
          "name": "",
          "type": "string"
        }
      ],
      "stateMutability": "view",
      "type": "function"
    },
    {
      "inputs": [
        {
          "internalType": "uint256",
          "name": "_amountIn",
          "type": "uint256"
        },
        {
          "internalType": "address",
          "name": "_tokenIn",
          "type": "address"
        },
        {
          "internalType": "address",
          "name": "_tokenOut",
          "type": "address"
        }
      ],
      "name": "query",
      "outputs": [
        {
          "internalType": "uint256",
          "name": "",
          "type": "uint256"
        }
      ],
      "stateMutability": "view",
      "type": "function"
    },
    {
      "inputs": [],
      "name": "quoter",
      "outputs": [
        {
          "internalType": "address",
          "name": "",
          "type": "address"
        }
      ],
      "stateMutability": "view",
      "type": "function"
    },
    {
      "inputs": [],
      "name": "quoterGasLimit",
      "outputs": [
        {
          "internalType": "uint256",
          "name": "",
          "type": "uint256"
        }
      ],
      "stateMutability": "view",
      "type": "function"
    },
    {
      "inputs": [
        {
          "internalType": "address",
          "name": "_tokenAddress",
          "type": "address"
        },
        {
          "internalType": "uint256",
          "name": "_tokenAmount",
          "type": "uint256"
        }
      ],
      "name": "recoverERC20",
      "outputs": [],
      "stateMutability": "nonpayable",
      "type": "function"
    },
    {
      "inputs": [
        {
          "internalType": "address",
          "name": "removedMaintainer",
          "type": "address"
        }
      ],
      "name": "removeMaintainer",
      "outputs": [],
      "stateMutability": "nonpayable",
      "type": "function"
    },
    {
      "inputs": [
        {
          "internalType": "bytes32",
          "name": "role",
          "type": "bytes32"
        },
        {
          "internalType": "address",
          "name": "account",
          "type": "address"
        }
      ],
      "name": "renounceRole",
      "outputs": [],
      "stateMutability": "nonpayable",
      "type": "function"
    },
    {
      "inputs": [
        {
          "internalType": "bytes32",
          "name": "role",
          "type": "bytes32"
        }
      ],
      "name": "renounceRole",
      "outputs": [],
      "stateMutability": "nonpayable",
      "type": "function"
    },
    {
      "inputs": [
        {
          "internalType": "address",
          "name": "_token",
          "type": "address"
        },
        {
          "internalType": "address",
          "name": "_spender",
          "type": "address"
        }
      ],
      "name": "revokeAllowance",
      "outputs": [],
      "stateMutability": "nonpayable",
      "type": "function"
    },
    {
      "inputs": [
        {
          "internalType": "bytes32",
          "name": "role",
          "type": "bytes32"
        },
        {
          "internalType": "address",
          "name": "account",
          "type": "address"
        }
      ],
      "name": "revokeRole",
      "outputs": [],
      "stateMutability": "nonpayable",
      "type": "function"
    },
    {
      "inputs": [
        {
          "internalType": "address",
          "name": "newQuoter",
          "type": "address"
        }
      ],
      "name": "setQuoter",
      "outputs": [],
      "stateMutability": "nonpayable",
      "type": "function"
    },
    {
      "inputs": [
        {
          "internalType": "uint256",
          "name": "newLimit",
          "type": "uint256"
        }
      ],
      "name": "setQuoterGasLimit",
      "outputs": [],
      "stateMutability": "nonpayable",
      "type": "function"
    },
    {
      "inputs": [
        {
          "internalType": "uint256",
          "name": "_estimate",
          "type": "uint256"
        }
      ],
      "name": "setSwapGasEstimate",
      "outputs": [],
      "stateMutability": "nonpayable",
      "type": "function"
    },
    {
      "inputs": [
        {
          "internalType": "bytes4",
          "name": "interfaceId",
          "type": "bytes4"
        }
      ],
      "name": "supportsInterface",
      "outputs": [
        {
          "internalType": "bool",
          "name": "",
          "type": "bool"
        }
      ],
      "stateMutability": "view",
      "type": "function"
    },
    {
      "inputs": [
        {
          "internalType": "uint256",
          "name": "_amountIn",
          "type": "uint256"
        },
        {
          "internalType": "uint256",
          "name": "_amountOut",
          "type": "uint256"
        },
        {
          "internalType": "address",
          "name": "_fromToken",
          "type": "address"
        },
        {
          "internalType": "address",
          "name": "_toToken",
          "type": "address"
        },
        {
          "internalType": "address",
          "name": "_to",
          "type": "address"
        }
      ],
      "name": "swap",
      "outputs": [],
      "stateMutability": "nonpayable",
      "type": "function"
    },
    {
      "inputs": [],
      "name": "swapGasEstimate",
      "outputs": [
        {
          "internalType": "uint256",
          "name": "",
          "type": "uint256"
        }
      ],
      "stateMutability": "view",
      "type": "function"
    },
    {
      "inputs": [
        {
          "internalType": "address",
          "name": "newOwner",
          "type": "address"
        }
      ],
      "name": "transferOwnership",
      "outputs": [],
      "stateMutability": "nonpayable",
      "type": "function"
    },
    {
      "inputs": [
        {
          "internalType": "int256",
          "name": "amount0Delta",
          "type": "int256"
        },
        {
          "internalType": "int256",
          "name": "amount1Delta",
          "type": "int256"
        },
        {
          "internalType": "bytes",
          "name": "",
          "type": "bytes"
        }
      ],
      "name": "uniswapV3SwapCallback",
      "outputs": [],
      "stateMutability": "nonpayable",
      "type": "function"
    },
    {
      "stateMutability": "payable",
      "type": "receive"
    }
  ],
  "transactionHash": "0x322c88163bb805e2df1e57ac8c6e2d915cdaea1c40f9ee282e601513dafb659d",
  "args": [
    "UniswapV3Adapter",
    5000000,
    20000000,
    "0x79582F4d4688CC85aD540DC6F09b14aDDE14332F",
    "0xC429540d5358C24629179dF500a7d41C505896E8",
    [
      100,
      500,
      3000,
      10000
    ]
  ],
  "solcInputHash": "b4bb45b9afd6aacbd0b82d6e6317725f",
  "bytecode": "0x60a06040523480156200001157600080fd5b506040516200302c3803806200302c83398101604081905262000034916200066c565b858585858585858584868383336200004e6000826200012e565b6200007a7f339759585899103d2ace64958e37e18ccb0504652c81d4a1b8aa80fe2126ab95826200012e565b5062000086826200013e565b6200009181620001a7565b506200009f905081620002a3565b620000aa8262000367565b5050506001600160601b0319606084901b166080525060005b81518110156200011b5762000106828281518110620000f257634e487b7160e01b600052603260045260246000fd5b6020026020010151620003f960201b60201c565b806200011281620007f2565b915050620000c3565b5050505050505050505050505062000830565b6200013a82826200046d565b5050565b8051620001925760405162461bcd60e51b815260206004820152601460248201527f496e76616c69642061646170746572206e616d6500000000000000000000000060448201526064015b60405180910390fd5b80516200013a9060029060208401906200050d565b33600081815260008051602062002fec833981519152602052604090205460ff16620002165760405162461bcd60e51b815260206004820152602860248201526000805160206200300c83398151915260448201526734b73a30b4b732b960c11b606482015260840162000189565b81620002655760405162461bcd60e51b815260206004820152601460248201527f496e76616c6964206761732d657374696d617465000000000000000000000000604482015260640162000189565b600182905560405182815230907ff43f23b7a28e6f8ce6843a21bd7b48bce778aa913b8c8cf459edf7d770e8d38a9060200160405180910390a25050565b33600081815260008051602062002fec833981519152602052604090205460ff16620003125760405162461bcd60e51b815260206004820152602860248201526000805160206200300c83398151915260448201526734b73a30b4b732b960c11b606482015260840162000189565b81620003615760405162461bcd60e51b815260206004820152601b60248201527f71756572794761734c696d69742063616e2774206265207a65726f0000000000604482015260640162000189565b50600355565b33600081815260008051602062002fec833981519152602052604090205460ff16620003d65760405162461bcd60e51b815260206004820152602860248201526000805160206200300c83398151915260448201526734b73a30b4b732b960c11b606482015260840162000189565b50600480546001600160a01b0319166001600160a01b0392909216919091179055565b62ffffff9081166000818152600560205260408120805460ff19166001908117909155600680549182018155909152600a8082047ff652222313e28459528d920b65115c16c04f3efc82aaedc97be59f3f377c0d3f018054600392909306919091026101000a928302929093021916179055565b6000828152602081815260408083206001600160a01b038516845290915290205460ff166200013a576000828152602081815260408083206001600160a01b03851684529091529020805460ff19166001179055620004c93390565b6001600160a01b0316816001600160a01b0316837f2f8788117e7eff1d82e926ec794901d17c78024a50270940304540a733656f0d60405160405180910390a45050565b8280546200051b90620007b5565b90600052602060002090601f0160209004810192826200053f57600085556200058a565b82601f106200055a57805160ff19168380011785556200058a565b828001600101855582156200058a579182015b828111156200058a5782518255916020019190600101906200056d565b50620005989291506200059c565b5090565b5b808211156200059857600081556001016200059d565b80516001600160a01b0381168114620005cb57600080fd5b919050565b600082601f830112620005e1578081fd5b815160206001600160401b03821115620005ff57620005ff6200081a565b8160051b6200061082820162000782565b8381528281019086840183880185018910156200062b578687fd5b8693505b858410156200066057805162ffffff811681146200064b578788fd5b8352600193909301929184019184016200062f565b50979650505050505050565b60008060008060008060c0878903121562000685578182fd5b86516001600160401b03808211156200069c578384fd5b818901915089601f830112620006b0578384fd5b815181811115620006c557620006c56200081a565b6020620006db601f8301601f1916820162000782565b8281528c82848701011115620006ef578687fd5b865b838110156200070e578581018301518282018401528201620006f1565b838111156200071f57878385840101525b50908b015160408c0151919a509850965062000740905060608a01620005b3565b94506200075060808a01620005b3565b935060a089015191508082111562000766578283fd5b506200077589828a01620005d0565b9150509295509295509295565b604051601f8201601f191681016001600160401b0381118282101715620007ad57620007ad6200081a565b604052919050565b600181811c90821680620007ca57607f821691505b60208210811415620007ec57634e487b7160e01b600052602260045260246000fd5b50919050565b60006000198214156200081357634e487b7160e01b81526011600452602481fd5b5060010190565b634e487b7160e01b600052604160045260246000fd5b60805160601c612796620008566000396000818161141d0152611f3901526127966000f3fe6080604052600436106101bb5760003560e01c806391d14854116100ec578063eab90da61161008a578063f35c4d4511610064578063f35c4d451461053f578063f87422541461055f578063f912c64b14610593578063fa461e33146105b357600080fd5b8063eab90da6146104df578063ef99893a146104ff578063f2fde38b1461051f57600080fd5b8063c6bbd5a7116100c6578063c6bbd5a714610437578063ce62f6c41461046f578063d547741f1461049f578063d8baf7cf146104bf57600080fd5b806391d14854146103aa578063a217fddf146103ee578063a2e641371461040357600080fd5b806369cff80d116101595780637ae26773116101335780637ae267731461032a57806384a33e631461034a5780638980f11f1461036a5780638bb9c5bf1461038a57600080fd5b806369cff80d146102d45780636b453c1f146102ea57806373ec15661461030a57600080fd5b8063248a9ca311610195578063248a9ca31461024c5780632bc857a01461027c5780632f2ff15d1461029257806336568abe146102b457600080fd5b806301ffc9a7146101c757806305e3f4dc146101fc57806306fdde031461022a57600080fd5b366101c257005b600080fd5b3480156101d357600080fd5b506101e76101e23660046122c4565b6105d3565b60405190151581526020015b60405180910390f35b34801561020857600080fd5b5061021c61021736600461217b565b61063c565b6040519081526020016101f3565b34801561023657600080fd5b5061023f61067d565b6040516101f391906125b8565b34801561025857600080fd5b5061021c610267366004612288565b60009081526020819052604090206001015490565b34801561028857600080fd5b5061021c60035481565b34801561029e57600080fd5b506102b26102ad3660046122a0565b61070b565b005b3480156102c057600080fd5b506102b26102cf3660046122a0565b610735565b3480156102e057600080fd5b5061021c60015481565b3480156102f657600080fd5b506102b261030536600461210b565b6107c6565b34801561031657600080fd5b506102b26103253660046121f8565b6107f3565b34801561033657600080fd5b506102b2610345366004612143565b6108e0565b34801561035657600080fd5b506102b2610365366004612288565b610984565b34801561037657600080fd5b506102b26103853660046121cd565b610a9e565b34801561039657600080fd5b506102b26103a5366004612288565b610bd9565b3480156103b657600080fd5b506101e76103c53660046122a0565b6000918252602082815260408084206001600160a01b0393909316845291905290205460ff1690565b3480156103fa57600080fd5b5061021c600081565b34801561040f57600080fd5b5061042361041e366004612288565b610be4565b60405162ffffff90911681526020016101f3565b34801561044357600080fd5b50600454610457906001600160a01b031681565b6040516001600160a01b0390911681526020016101f3565b34801561047b57600080fd5b506101e761048a3660046123db565b60056020526000908152604090205460ff1681565b3480156104ab57600080fd5b506102b26104ba3660046122a0565b610c1d565b3480156104cb57600080fd5b506102b26104da36600461210b565b610c42565b3480156104eb57600080fd5b506102b26104fa366004612457565b610c6c565b34801561050b57600080fd5b5061021c61051a366004612416565b610e31565b34801561052b57600080fd5b506102b261053a36600461210b565b610e46565b34801561054b57600080fd5b506102b261055a366004612288565b610e5d565b34801561056b57600080fd5b5061021c7f339759585899103d2ace64958e37e18ccb0504652c81d4a1b8aa80fe2126ab9581565b34801561059f57600080fd5b506102b26105ae36600461210b565b610f3f565b3480156105bf57600080fd5b506102b26105ce366004612330565b611009565b60006001600160e01b031982167f7965db0b00000000000000000000000000000000000000000000000000000000148061063657507f01ffc9a7000000000000000000000000000000000000000000000000000000006001600160e01b03198316145b92915050565b604080516080810182526000606082018190529181018590526001600160a01b038481168252831660208201526106738682611205565b9695505050505050565b6002805461068a906126af565b80601f01602080910402602001604051908101604052809291908181526020018280546106b6906126af565b80156107035780601f106106d857610100808354040283529160200191610703565b820191906000526020600020905b8154815290600101906020018083116106e657829003601f168201915b505050505081565b6000828152602081905260409020600101546107268161125e565b6107308383611268565b505050565b6001600160a01b03811633146107b85760405162461bcd60e51b815260206004820152602f60248201527f416363657373436f6e74726f6c3a2063616e206f6e6c792072656e6f756e636560448201527f20726f6c657320666f722073656c66000000000000000000000000000000000060648201526084015b60405180910390fd5b6107c28282611306565b5050565b6107f07f339759585899103d2ace64958e37e18ccb0504652c81d4a1b8aa80fe2126ab958261070b565b50565b3360008181527fa54247010af6b3693b80aceddfad12e077c5de3571e6243fada502635f0d7d39602052604090205460ff166108825760405162461bcd60e51b815260206004820152602860248201527f4d61696e7461696e61626c653a2043616c6c6572206973206e6f742061206d6160448201526734b73a30b4b732b960c11b60648201526084016107af565b60005b828110156108da576108ca8484838181106108b057634e487b7160e01b600052603260045260246000fd5b90506020020160208101906108c591906123db565b611385565b6108d3816126e4565b9050610885565b50505050565b3360008181527fa54247010af6b3693b80aceddfad12e077c5de3571e6243fada502635f0d7d39602052604090205460ff1661096f5760405162461bcd60e51b815260206004820152602860248201527f4d61696e7461696e61626c653a2043616c6c6572206973206e6f742061206d6160448201526734b73a30b4b732b960c11b60648201526084016107af565b6107306001600160a01b038416836000611566565b3360008181527fa54247010af6b3693b80aceddfad12e077c5de3571e6243fada502635f0d7d39602052604090205460ff16610a135760405162461bcd60e51b815260206004820152602860248201527f4d61696e7461696e61626c653a2043616c6c6572206973206e6f742061206d6160448201526734b73a30b4b732b960c11b60648201526084016107af565b81610a605760405162461bcd60e51b815260206004820152601460248201527f496e76616c6964206761732d657374696d61746500000000000000000000000060448201526064016107af565b600182905560405182815230907ff43f23b7a28e6f8ce6843a21bd7b48bce778aa913b8c8cf459edf7d770e8d38a9060200160405180910390a25050565b3360008181527fa54247010af6b3693b80aceddfad12e077c5de3571e6243fada502635f0d7d39602052604090205460ff16610b2d5760405162461bcd60e51b815260206004820152602860248201527f4d61696e7461696e61626c653a2043616c6c6572206973206e6f742061206d6160448201526734b73a30b4b732b960c11b60648201526084016107af565b60008211610b7d5760405162461bcd60e51b815260206004820152601f60248201527f496e6669416461707465723a204e6f7468696e6720746f207265636f7665720060448201526064016107af565b610b916001600160a01b038416338461170b565b826001600160a01b03167f8c1256b8896378cd5044f80c202f9772b9d77dc85c8a6eb51967210b09bfaa2883604051610bcc91815260200190565b60405180910390a2505050565b336107c28282610735565b60068181548110610bf457600080fd5b90600052602060002090600a9182820401919006600302915054906101000a900462ffffff1681565b600082815260208190526040902060010154610c388161125e565b6107308383611306565b6107f07f339759585899103d2ace64958e37e18ccb0504652c81d4a1b8aa80fe2126ab9582610c1d565b6040516370a0823160e01b81526001600160a01b038281166004830152600091908416906370a082319060240160206040518083038186803b158015610cb157600080fd5b505afa158015610cc5573d6000803e3d6000fd5b505050506040513d601f19601f82011682018060405250810190610ce991906123fe565b9050610cf8868686868661173b565b6040516370a0823160e01b81526001600160a01b03838116600483015260009183918616906370a082319060240160206040518083038186803b158015610d3e57600080fd5b505afa158015610d52573d6000803e3d6000fd5b505050506040513d601f19601f82011682018060405250810190610d7691906123fe565b610d809190612655565b905085811015610dd25760405162461bcd60e51b815260206004820152601760248201527f496e73756666696369656e7420616d6f756e742d6f757400000000000000000060448201526064016107af565b836001600160a01b0316856001600160a01b03167fa84fa0e7fbf322815d2dc8fa56f31ca4a4d3350f0c984dfeddc29fdcbe84aea78989604051610e20929190918252602082015260400190565b60405180910390a350505050505050565b6000610e3e848484611805565b949350505050565b33610e5260008361070b565b6107c2600082610735565b3360008181527fa54247010af6b3693b80aceddfad12e077c5de3571e6243fada502635f0d7d39602052604090205460ff16610eec5760405162461bcd60e51b815260206004820152602860248201527f4d61696e7461696e61626c653a2043616c6c6572206973206e6f742061206d6160448201526734b73a30b4b732b960c11b60648201526084016107af565b81610f395760405162461bcd60e51b815260206004820152601b60248201527f71756572794761734c696d69742063616e2774206265207a65726f000000000060448201526064016107af565b50600355565b3360008181527fa54247010af6b3693b80aceddfad12e077c5de3571e6243fada502635f0d7d39602052604090205460ff16610fce5760405162461bcd60e51b815260206004820152602860248201527f4d61696e7461696e61626c653a2043616c6c6572206973206e6f742061206d6160448201526734b73a30b4b732b960c11b60648201526084016107af565b50600480547fffffffffffffffffffffffff0000000000000000000000000000000000000000166001600160a01b0392909216919091179055565b600084131561110b57336001600160a01b0316630dfe16816040518163ffffffff1660e01b815260040160206040518083038186803b15801561104b57600080fd5b505afa15801561105f573d6000803e3d6000fd5b505050506040513d601f19601f820116820180604052508101906110839190612127565b60405163a9059cbb60e01b8152336004820152602481018690526001600160a01b03919091169063a9059cbb90604401602060405180830381600087803b1580156110cd57600080fd5b505af11580156110e1573d6000803e3d6000fd5b505050506040513d601f19601f820116820180604052508101906111059190612268565b506108da565b336001600160a01b031663d21220a76040518163ffffffff1660e01b815260040160206040518083038186803b15801561114457600080fd5b505afa158015611158573d6000803e3d6000fd5b505050506040513d601f19601f8201168201806040525081019061117c9190612127565b60405163a9059cbb60e01b8152336004820152602481018590526001600160a01b03919091169063a9059cbb90604401602060405180830381600087803b1580156111c657600080fd5b505af11580156111da573d6000803e3d6000fd5b505050506040513d601f19601f820116820180604052508101906111fe9190612268565b5050505050565b600080600061121c84600001518560200151611863565b9150915060008061123387858860400151866118b6565b915091508361124a57611245826126ff565b611253565b611253816126ff565b979650505050505050565b6107f0813361197f565b6000828152602081815260408083206001600160a01b038516845290915290205460ff166107c2576000828152602081815260408083206001600160a01b03851684529091529020805460ff191660011790556112c23390565b6001600160a01b0316816001600160a01b0316837f2f8788117e7eff1d82e926ec794901d17c78024a50270940304540a733656f0d60405160405180910390a45050565b6000828152602081815260408083206001600160a01b038516845290915290205460ff16156107c2576000828152602081815260408083206001600160a01b0385168085529252808320805460ff1916905551339285917ff6391f5c32d9c69d2a47ea670b442974b53935d1edc7fd64eb21e047a839171b9190a45050565b62ffffff811660009081526005602052604090205460ff16156113ea5760405162461bcd60e51b815260206004820152601360248201527f46656520616c726561647920656e61626c65640000000000000000000000000060448201526064016107af565b6040517f22afcccb00000000000000000000000000000000000000000000000000000000815262ffffff821660048201527f00000000000000000000000000000000000000000000000000000000000000006001600160a01b0316906322afcccb9060240160206040518083038186803b15801561146757600080fd5b505afa15801561147b573d6000803e3d6000fd5b505050506040513d601f19601f8201168201806040525081019061149f91906122ec565b60020b6114ee5760405162461bcd60e51b815260206004820152601b60248201527f466163746f727920646f65736e277420737570706f727420666565000000000060448201526064016107af565b6107f08162ffffff9081166000818152600560205260408120805460ff19166001908117909155600680549182018155909152600a8082047ff652222313e28459528d920b65115c16c04f3efc82aaedc97be59f3f377c0d3f018054600392909306919091026101000a928302929093021916179055565b80158061160857506040517fdd62ed3e0000000000000000000000000000000000000000000000000000000081523060048201526001600160a01b03838116602483015284169063dd62ed3e9060440160206040518083038186803b1580156115ce57600080fd5b505afa1580156115e2573d6000803e3d6000fd5b505050506040513d601f19601f8201168201806040525081019061160691906123fe565b155b61167a5760405162461bcd60e51b815260206004820152603660248201527f5361666545524332303a20617070726f76652066726f6d206e6f6e2d7a65726f60448201527f20746f206e6f6e2d7a65726f20616c6c6f77616e63650000000000000000000060648201526084016107af565b6040516001600160a01b0383166024820152604481018290526107309084907f095ea7b300000000000000000000000000000000000000000000000000000000906064015b60408051601f198184030181529190526020810180517bffffffffffffffffffffffffffffffffffffffffffffffffffffffff166001600160e01b0319909316929092179091526119f2565b6040516001600160a01b03831660248201526044810182905261073090849063a9059cbb60e01b906064016116bf565b6040805160808082018352600080835260208084018290528385018290526060938401829052845192830185526001600160a01b0388811684528716838201528285018a90529282018190528351818152928301909352919061179f908390611b2e565b9050858110156117f15760405162461bcd60e51b815260206004820152601660248201527f496e73756666696369656e7420616d6f756e744f75740000000000000000000060448201526064016107af565b6117fc848285611c16565b50505050505050565b6040805160808082018352600080835260208084018290528385018290526060938401829052845192830185526001600160a01b03808816845286169083015292810186905290810182905261185a81611c3a565b95945050505050565b6001600160a01b038082169083161060008161189d57611898600173fffd8963efd1fc6a506488495d951d5263988d2661262d565b6118ad565b6118ad6401000276a360016125cb565b90509250929050565b6040516001600160a01b038086166024830152841515604483015260648201849052821660848201526000908190819060a40160408051601f198184030181529190526020810180517bffffffffffffffffffffffffffffffffffffffffffffffffffffffff167f90405d3600000000000000000000000000000000000000000000000000000000179052905060008061194f83611c73565b915091508115611973578080602001905181019061196d919061230d565b90955093505b50505094509492505050565b6000828152602081815260408083206001600160a01b038516845290915290205460ff166107c2576119b081611ce5565b6119bb836020611cf7565b6040516020016119cc9291906124fd565b60408051601f198184030181529082905262461bcd60e51b82526107af916004016125b8565b600080836001600160a01b031683604051611a0d91906124e1565b6000604051808303816000865af19150503d8060008114611a4a576040519150601f19603f3d011682016040523d82523d6000602084013e611a4f565b606091505b509150915081611aa15760405162461bcd60e51b815260206004820181905260248201527f5361666545524332303a206c6f772d6c6576656c2063616c6c206661696c656460448201526064016107af565b8051156108da5780806020019051810190611abc9190612268565b6108da5760405162461bcd60e51b815260206004820152602a60248201527f5361666545524332303a204552433230206f7065726174696f6e20646964206e60448201527f6f7420737563636565640000000000000000000000000000000000000000000060648201526084016107af565b600080611b4384600001518560200151611f25565b9050600080611b5a86600001518760200151611863565b91509150600080846001600160a01b031663128acb0830868b60400151878c6040518663ffffffff1660e01b8152600401611b9995949392919061257e565b6040805180830381600087803b158015611bb257600080fd5b505af1158015611bc6573d6000803e3d6000fd5b505050506040513d601f19601f82011682018060405250810190611bea919061230d565b9150915083611c0157611bfc826126ff565b611c0a565b611c0a816126ff565b98975050505050505050565b306001600160a01b03821614610730576107306001600160a01b038416828461170b565b600080611c4f83600001518460200151611f25565b90506001600160a01b03811615611c6d57611c6a8184611205565b91505b50919050565b6004546003546040516000926060926001600160a01b0390911691611c999086906124e1565b6000604051808303818686fa925050503d8060008114611cd5576040519150601f19603f3d011682016040523d82523d6000602084013e611cda565b606091505b509094909350915050565b60606106366001600160a01b03831660145b60606000611d0683600261260e565b611d119060026125f6565b67ffffffffffffffff811115611d3757634e487b7160e01b600052604160045260246000fd5b6040519080825280601f01601f191660200182016040528015611d61576020820181803683370190505b5090507f300000000000000000000000000000000000000000000000000000000000000081600081518110611da657634e487b7160e01b600052603260045260246000fd5b60200101906001600160f81b031916908160001a9053507f780000000000000000000000000000000000000000000000000000000000000081600181518110611dff57634e487b7160e01b600052603260045260246000fd5b60200101906001600160f81b031916908160001a9053506000611e2384600261260e565b611e2e9060016125f6565b90505b6001811115611ecf577f303132333435363738396162636465660000000000000000000000000000000085600f1660108110611e7d57634e487b7160e01b600052603260045260246000fd5b1a60f81b828281518110611ea157634e487b7160e01b600052603260045260246000fd5b60200101906001600160f81b031916908160001a90535060049490941c93611ec881612698565b9050611e31565b508315611f1e5760405162461bcd60e51b815260206004820181905260248201527f537472696e67733a20686578206c656e67746820696e73756666696369656e7460448201526064016107af565b9392505050565b60008060005b6006548110156121035760007f00000000000000000000000000000000000000000000000000000000000000006001600160a01b0316631698ee82878760068681548110611f8957634e487b7160e01b600052603260045260246000fd5b60009182526020909120600a8083049091015460405160e087901b6001600160e01b03191681526001600160a01b03958616600482015293909416602484015290066003026101000a90910462ffffff16604482015260640160206040518083038186803b158015611ffa57600080fd5b505afa15801561200e573d6000803e3d6000fd5b505050506040513d601f19601f820116820180604052508101906120329190612127565b90506001600160a01b03811661204857506120f3565b6000816001600160a01b0316631a6865026040518163ffffffff1660e01b815260040160206040518083038186803b15801561208357600080fd5b505afa158015612097573d6000803e3d6000fd5b505050506040513d601f19601f820116820180604052508101906120bb91906123ab565b9050836fffffffffffffffffffffffffffffffff16816fffffffffffffffffffffffffffffffff1611156120f0578093508194505b50505b6120fc816126e4565b9050611f2b565b505092915050565b60006020828403121561211c578081fd5b8135611f1e8161274b565b600060208284031215612138578081fd5b8151611f1e8161274b565b60008060408385031215612155578081fd5b82356121608161274b565b915060208301356121708161274b565b809150509250929050565b60008060008060808587031215612190578182fd5b843561219b8161274b565b93506020850135925060408501356121b28161274b565b915060608501356121c28161274b565b939692955090935050565b600080604083850312156121df578182fd5b82356121ea8161274b565b946020939093013593505050565b6000806020838503121561220a578182fd5b823567ffffffffffffffff80821115612221578384fd5b818501915085601f830112612234578384fd5b813581811115612242578485fd5b8660208260051b8501011115612256578485fd5b60209290920196919550909350505050565b600060208284031215612279578081fd5b81518015158114611f1e578182fd5b600060208284031215612299578081fd5b5035919050565b600080604083850312156122b2578182fd5b8235915060208301356121708161274b565b6000602082840312156122d5578081fd5b81356001600160e01b031981168114611f1e578182fd5b6000602082840312156122fd578081fd5b81518060020b8114611f1e578182fd5b6000806040838503121561231f578182fd5b505080516020909101519092909150565b60008060008060608587031215612345578182fd5b8435935060208501359250604085013567ffffffffffffffff8082111561236a578384fd5b818701915087601f83011261237d578384fd5b81358181111561238b578485fd5b88602082850101111561239c578485fd5b95989497505060200194505050565b6000602082840312156123bc578081fd5b81516fffffffffffffffffffffffffffffffff81168114611f1e578182fd5b6000602082840312156123ec578081fd5b813562ffffff81168114611f1e578182fd5b60006020828403121561240f578081fd5b5051919050565b60008060006060848603121561242a578081fd5b83359250602084013561243c8161274b565b9150604084013561244c8161274b565b809150509250925092565b600080600080600060a0868803121561246e578283fd5b853594506020860135935060408601356124878161274b565b925060608601356124978161274b565b915060808601356124a78161274b565b809150509295509295909350565b600081518084526124cd81602086016020860161266c565b601f01601f19169290920160200192915050565b600082516124f381846020870161266c565b9190910192915050565b7f416363657373436f6e74726f6c3a206163636f756e742000000000000000000081526000835161253581601785016020880161266c565b7f206973206d697373696e6720726f6c6520000000000000000000000000000000601791840191820152835161257281602884016020880161266c565b01602801949350505050565b60006001600160a01b038088168352861515602084015285604084015280851660608401525060a0608083015261125360a08301846124b5565b602081526000611f1e60208301846124b5565b60006001600160a01b038083168185168083038211156125ed576125ed612735565b01949350505050565b6000821982111561260957612609612735565b500190565b600081600019048311821515161561262857612628612735565b500290565b60006001600160a01b038381169083168181101561264d5761264d612735565b039392505050565b60008282101561266757612667612735565b500390565b60005b8381101561268757818101518382015260200161266f565b838111156108da5750506000910152565b6000816126a7576126a7612735565b506000190190565b600181811c908216806126c357607f821691505b60208210811415611c6d57634e487b7160e01b600052602260045260246000fd5b60006000198214156126f8576126f8612735565b5060010190565b60007f800000000000000000000000000000000000000000000000000000000000000082141561273157612731612735565b0390565b634e487b7160e01b600052601160045260246000fd5b6001600160a01b03811681146107f057600080fdfea2646970667358221220fd07eab43929d76f54e7532d514417f83131611b486fbbcee1e2888389d1fbc664736f6c63430008040033a54247010af6b3693b80aceddfad12e077c5de3571e6243fada502635f0d7d394d61696e7461696e61626c653a2043616c6c6572206973206e6f742061206d61",
  "devdoc": {
    "kind": "dev",
    "methods": {
      "getRoleAdmin(bytes32)": {
        "details": "Returns the admin role that controls `role`. See {grantRole} and {revokeRole}. To change a role's admin, use {_setRoleAdmin}."
      },
      "grantRole(bytes32,address)": {
        "details": "Grants `role` to `account`. If `account` had not been already granted `role`, emits a {RoleGranted} event. Requirements: - the caller must have ``role``'s admin role. May emit a {RoleGranted} event."
      },
      "hasRole(bytes32,address)": {
        "details": "Returns `true` if `account` has been granted `role`."
      },
      "renounceRole(bytes32,address)": {
        "details": "Revokes `role` from the calling account. Roles are often managed via {grantRole} and {revokeRole}: this function's purpose is to provide a mechanism for accounts to lose their privileges if they are compromised (such as when a trusted device is misplaced). If the calling account had been revoked `role`, emits a {RoleRevoked} event. Requirements: - the caller must be `account`. May emit a {RoleRevoked} event."
      },
      "revokeRole(bytes32,address)": {
        "details": "Revokes `role` from `account`. If `account` had been granted `role`, emits a {RoleRevoked} event. Requirements: - the caller must have ``role``'s admin role. May emit a {RoleRevoked} event."
      },
      "supportsInterface(bytes4)": {
        "details": "See {IERC165-supportsInterface}."
      }
    },
    "version": 1
  },
  "userdoc": {
    "kind": "user",
    "methods": {},
    "version": 1
  },
  "storageLayout": {
    "storage": [
      {
        "astId": 24,
        "contract": "src/contracts/adapters/UniswapV3Adapter.sol:UniswapV3Adapter",
        "label": "_roles",
        "offset": 0,
        "slot": "0",
        "type": "t_mapping(t_bytes32,t_struct(RoleData)19_storage)"
      },
      {
        "astId": 1696,
        "contract": "src/contracts/adapters/UniswapV3Adapter.sol:UniswapV3Adapter",
        "label": "swapGasEstimate",
        "offset": 0,
        "slot": "1",
        "type": "t_uint256"
      },
      {
        "astId": 1698,
        "contract": "src/contracts/adapters/UniswapV3Adapter.sol:UniswapV3Adapter",
        "label": "name",
        "offset": 0,
        "slot": "2",
        "type": "t_string_storage"
      },
      {
        "astId": 3587,
        "contract": "src/contracts/adapters/UniswapV3Adapter.sol:UniswapV3Adapter",
        "label": "quoterGasLimit",
        "offset": 0,
        "slot": "3",
        "type": "t_uint256"
      },
      {
        "astId": 3589,
        "contract": "src/contracts/adapters/UniswapV3Adapter.sol:UniswapV3Adapter",
        "label": "quoter",
        "offset": 0,
        "slot": "4",
        "type": "t_address"
      },
      {
        "astId": 3309,
        "contract": "src/contracts/adapters/UniswapV3Adapter.sol:UniswapV3Adapter",
        "label": "isFeeAmountEnabled",
        "offset": 0,
        "slot": "5",
        "type": "t_mapping(t_uint24,t_bool)"
      },
      {
        "astId": 3312,
        "contract": "src/contracts/adapters/UniswapV3Adapter.sol:UniswapV3Adapter",
        "label": "feeAmounts",
        "offset": 0,
        "slot": "6",
        "type": "t_array(t_uint24)dyn_storage"
      }
    ],
    "types": {
      "t_address": {
        "encoding": "inplace",
        "label": "address",
        "numberOfBytes": "20"
      },
      "t_array(t_uint24)dyn_storage": {
        "base": "t_uint24",
        "encoding": "dynamic_array",
        "label": "uint24[]",
        "numberOfBytes": "32"
      },
      "t_bool": {
        "encoding": "inplace",
        "label": "bool",
        "numberOfBytes": "1"
      },
      "t_bytes32": {
        "encoding": "inplace",
        "label": "bytes32",
        "numberOfBytes": "32"
      },
      "t_mapping(t_address,t_bool)": {
        "encoding": "mapping",
        "key": "t_address",
        "label": "mapping(address => bool)",
        "numberOfBytes": "32",
        "value": "t_bool"
      },
      "t_mapping(t_bytes32,t_struct(RoleData)19_storage)": {
        "encoding": "mapping",
        "key": "t_bytes32",
        "label": "mapping(bytes32 => struct AccessControl.RoleData)",
        "numberOfBytes": "32",
        "value": "t_struct(RoleData)19_storage"
      },
      "t_mapping(t_uint24,t_bool)": {
        "encoding": "mapping",
        "key": "t_uint24",
        "label": "mapping(uint24 => bool)",
        "numberOfBytes": "32",
        "value": "t_bool"
      },
      "t_string_storage": {
        "encoding": "bytes",
        "label": "string",
        "numberOfBytes": "32"
      },
      "t_struct(RoleData)19_storage": {
        "encoding": "inplace",
        "label": "struct AccessControl.RoleData",
        "members": [
          {
            "astId": 16,
            "contract": "src/contracts/adapters/UniswapV3Adapter.sol:UniswapV3Adapter",
            "label": "members",
            "offset": 0,
            "slot": "0",
            "type": "t_mapping(t_address,t_bool)"
          },
          {
            "astId": 18,
            "contract": "src/contracts/adapters/UniswapV3Adapter.sol:UniswapV3Adapter",
            "label": "adminRole",
            "offset": 0,
            "slot": "1",
            "type": "t_bytes32"
          }
        ],
        "numberOfBytes": "64"
      },
      "t_uint24": {
        "encoding": "inplace",
        "label": "uint24",
        "numberOfBytes": "3"
      },
      "t_uint256": {
        "encoding": "inplace",
        "label": "uint256",
        "numberOfBytes": "32"
      }
    }
  }
}